{
  "contractName": "DrugCounterfiet",
  "abi": [
    {
      "constant": true,
      "inputs": [
        {
          "name": "",
          "type": "uint256"
        }
      ],
      "name": "manufacturers",
      "outputs": [
        {
          "name": "verificationId",
          "type": "string"
        },
        {
          "name": "name",
          "type": "string"
        },
        {
          "name": "location",
          "type": "string"
        },
        {
          "name": "password",
          "type": "string"
        },
        {
          "name": "manAddress",
          "type": "address"
        }
      ],
      "payable": false,
      "stateMutability": "view",
      "type": "function",
      "signature": "0x90175af1"
    },
    {
      "constant": true,
      "inputs": [
        {
          "name": "",
          "type": "uint256"
        }
      ],
      "name": "sellers",
      "outputs": [
        {
          "name": "name",
          "type": "string"
        },
        {
          "name": "location",
          "type": "string"
        },
        {
          "name": "manId",
          "type": "uint256"
        },
        {
          "name": "password",
          "type": "string"
        },
        {
          "name": "sellAddress",
          "type": "address"
        }
      ],
      "payable": false,
      "stateMutability": "view",
      "type": "function",
      "signature": "0xcee26ed5"
    },
    {
      "anonymous": false,
      "inputs": [
        {
          "indexed": false,
          "name": "verificationId",
          "type": "string"
        },
        {
          "indexed": false,
          "name": "name",
          "type": "string"
        },
        {
          "indexed": false,
          "name": "location",
          "type": "string"
        }
      ],
      "name": "ManufacturerCreated",
      "type": "event",
      "signature": "0x165040bdbacef6df8fe21f051768c2880af7e818c00a686feb9dad36f52f62f4"
    },
    {
      "anonymous": false,
      "inputs": [
        {
          "indexed": false,
          "name": "name",
          "type": "string"
        },
        {
          "indexed": false,
          "name": "location",
          "type": "string"
        },
        {
          "indexed": false,
          "name": "manId",
          "type": "uint256"
        }
      ],
      "name": "SellerCreated",
      "type": "event",
      "signature": "0xfa348a37b2c95bb552cf01202b5d7079946c5b0a69a2a2d5f7e55501b4ff89c6"
    },
    {
      "anonymous": false,
      "inputs": [
        {
          "indexed": false,
          "name": "password",
          "type": "string"
        },
        {
          "indexed": false,
          "name": "manAddress",
          "type": "address"
        }
      ],
      "name": "Registered",
      "type": "event",
      "signature": "0x50f74ca45caac8020b8d891bd13ea5a2d79564986ee6a839f0d914896388322d"
    },
    {
      "constant": false,
      "inputs": [
        {
          "name": "_regid",
          "type": "uint256"
        },
        {
          "name": "_verificationId",
          "type": "string"
        },
        {
          "name": "_name",
          "type": "string"
        },
        {
          "name": "_location",
          "type": "string"
        }
      ],
      "name": "createManufacturer",
      "outputs": [],
      "payable": false,
      "stateMutability": "nonpayable",
      "type": "function",
      "signature": "0x5f3a6acf"
    },
    {
      "constant": false,
      "inputs": [
        {
          "name": "_regid",
          "type": "uint256"
        },
        {
          "name": "_name",
          "type": "string"
        },
        {
          "name": "_location",
          "type": "string"
        },
        {
          "name": "_manId",
          "type": "uint256"
        }
      ],
      "name": "createSeller",
      "outputs": [],
      "payable": false,
      "stateMutability": "nonpayable",
      "type": "function",
      "signature": "0xe80fd600"
    },
    {
      "constant": false,
      "inputs": [
        {
          "name": "_regid",
          "type": "uint256"
        },
        {
          "name": "_password",
          "type": "string"
        }
      ],
      "name": "registerMan",
      "outputs": [],
      "payable": false,
      "stateMutability": "nonpayable",
      "type": "function",
      "signature": "0x276dde9d"
    },
    {
      "constant": false,
      "inputs": [
        {
          "name": "_regid",
          "type": "uint256"
        },
        {
          "name": "_name",
          "type": "string"
        },
        {
          "name": "_location",
          "type": "string"
        },
        {
          "name": "_manId",
          "type": "uint256"
        },
        {
          "name": "_password",
          "type": "string"
        }
      ],
      "name": "registerSeller",
      "outputs": [],
      "payable": false,
      "stateMutability": "nonpayable",
      "type": "function",
      "signature": "0x82f5622b"
    },
    {
      "constant": true,
      "inputs": [
        {
          "name": "_regid",
          "type": "uint256"
        },
        {
          "name": "_type",
          "type": "uint256"
        },
        {
          "name": "_password",
          "type": "string"
        }
      ],
      "name": "login",
      "outputs": [
        {
          "name": "",
          "type": "bool"
        }
      ],
      "payable": false,
      "stateMutability": "view",
      "type": "function",
      "signature": "0xe9bb74f2"
    }
  ],
  "bytecode": "0x608060405234801561001057600080fd5b5061189d806100206000396000f3fe6080604052600436106100825763ffffffff7c0100000000000000000000000000000000000000000000000000000000600035041663276dde9d81146100875780635f3a6acf1461014357806382f5622b1461030b57806390175af1146104db578063cee26ed5146106c8578063e80fd60014610856578063e9bb74f214610999575b600080fd5b34801561009357600080fd5b50610141600480360360408110156100aa57600080fd5b813591908101906040810160208201356401000000008111156100cc57600080fd5b8201836020820111156100de57600080fd5b8035906020019184600183028401116401000000008311171561010057600080fd5b91908080601f016020809104026020016040519081016040528093929190818152602001838380828437600092019190915250929550610a6c945050505050565b005b34801561014f57600080fd5b506101416004803603608081101561016657600080fd5b8135919081019060408101602082013564010000000081111561018857600080fd5b82018360208201111561019a57600080fd5b803590602001918460018302840111640100000000831117156101bc57600080fd5b91908080601f016020809104026020016040519081016040528093929190818152602001838380828437600092019190915250929594936020810193503591505064010000000081111561020f57600080fd5b82018360208201111561022157600080fd5b8035906020019184600183028401116401000000008311171561024357600080fd5b91908080601f016020809104026020016040519081016040528093929190818152602001838380828437600092019190915250929594936020810193503591505064010000000081111561029657600080fd5b8201836020820111156102a857600080fd5b803590602001918460018302840111640100000000831117156102ca57600080fd5b91908080601f016020809104026020016040519081016040528093929190818152602001838380828437600092019190915250929550610b68945050505050565b34801561031757600080fd5b50610141600480360360a081101561032e57600080fd5b8135919081019060408101602082013564010000000081111561035057600080fd5b82018360208201111561036257600080fd5b8035906020019184600183028401116401000000008311171561038457600080fd5b91908080601f01602080910402602001604051908101604052809392919081815260200183838082843760009201919091525092959493602081019350359150506401000000008111156103d757600080fd5b8201836020820111156103e957600080fd5b8035906020019184600183028401116401000000008311171561040b57600080fd5b91908080601f0160208091040260200160405190810160405280939291908181526020018383808284376000920191909152509295843595909490935060408101925060200135905064010000000081111561046657600080fd5b82018360208201111561047857600080fd5b8035906020019184600183028401116401000000008311171561049a57600080fd5b91908080601f016020809104026020016040519081016040528093929190818152602001838380828437600092019190915250929550610dac945050505050565b3480156104e757600080fd5b50610505600480360360208110156104fe57600080fd5b5035610fe7565b604051808060200180602001806020018060200186600160a060020a0316600160a060020a0316815260200185810385528a818151815260200191508051906020019080838360005b8381101561056657818101518382015260200161054e565b50505050905090810190601f1680156105935780820380516001836020036101000a031916815260200191505b5085810384528951815289516020918201918b019080838360005b838110156105c65781810151838201526020016105ae565b50505050905090810190601f1680156105f35780820380516001836020036101000a031916815260200191505b5085810383528851815288516020918201918a019080838360005b8381101561062657818101518382015260200161060e565b50505050905090810190601f1680156106535780820380516001836020036101000a031916815260200191505b50858103825287518152875160209182019189019080838360005b8381101561068657818101518382015260200161066e565b50505050905090810190601f1680156106b35780820380516001836020036101000a031916815260200191505b50995050505050505050505060405180910390f35b3480156106d457600080fd5b506106f2600480360360208110156106eb57600080fd5b5035611254565b6040518080602001806020018681526020018060200185600160a060020a0316600160a060020a03168152602001848103845289818151815260200191508051906020019080838360005b8381101561075557818101518382015260200161073d565b50505050905090810190601f1680156107825780820380516001836020036101000a031916815260200191505b5084810383528851815288516020918201918a019080838360005b838110156107b557818101518382015260200161079d565b50505050905090810190601f1680156107e25780820380516001836020036101000a031916815260200191505b50848103825286518152865160209182019188019080838360005b838110156108155781810151838201526020016107fd565b50505050905090810190601f1680156108425780820380516001836020036101000a031916815260200191505b509850505050505050505060405180910390f35b34801561086257600080fd5b506101416004803603608081101561087957600080fd5b8135919081019060408101602082013564010000000081111561089b57600080fd5b8201836020820111156108ad57600080fd5b803590602001918460018302840111640100000000831117156108cf57600080fd5b91908080601f016020809104026020016040519081016040528093929190818152602001838380828437600092019190915250929594936020810193503591505064010000000081111561092257600080fd5b82018360208201111561093457600080fd5b8035906020019184600183028401116401000000008311171561095657600080fd5b91908080601f01602080910402602001604051908101604052809392919081815260200183838082843760009201919091525092955050913592506113f1915050565b3480156109a557600080fd5b50610a58600480360360608110156109bc57600080fd5b8135916020810135918101906060810160408201356401000000008111156109e357600080fd5b8201836020820111156109f557600080fd5b80359060200191846001830284011164010000000083111715610a1757600080fd5b91908080601f0160208091040260200160405190810160405280939291908181526020018383808284376000920191909152509295506115c5945050505050565b604080519115158252519081900360200190f35b6000828152602081815260409091208251610a8f926003909201918401906117d6565b50600082815260208181526040808320600401805473ffffffffffffffffffffffffffffffffffffffff191633908117909155815180840182905282815285519281019290925284517f50f74ca45caac8020b8d891bd13ea5a2d79564986ee6a839f0d914896388322d94869492939283926060840192918701918190849084905b83811015610b29578181015183820152602001610b11565b50505050905090810190601f168015610b565780820380516001836020036101000a031916815260200191505b50935050505060405180910390a15050565b6040805160a0810182528481526020808201859052818301849052825180820184526000808252606084019190915260808301819052878152808252929092208151805192939192610bbd92849201906117d6565b506020828101518051610bd692600185019201906117d6565b5060408201518051610bf29160028401916020909101906117d6565b5060608201518051610c0e9160038401916020909101906117d6565b5060808201518160040160006101000a815481600160a060020a030219169083600160a060020a031602179055509050507f165040bdbacef6df8fe21f051768c2880af7e818c00a686feb9dad36f52f62f483838360405180806020018060200180602001848103845287818151815260200191508051906020019080838360005b83811015610ca8578181015183820152602001610c90565b50505050905090810190601f168015610cd55780820380516001836020036101000a031916815260200191505b50848103835286518152865160209182019188019080838360005b83811015610d08578181015183820152602001610cf0565b50505050905090810190601f168015610d355780820380516001836020036101000a031916815260200191505b50848103825285518152855160209182019187019080838360005b83811015610d68578181015183820152602001610d50565b50505050905090810190601f168015610d955780820380516001836020036101000a031916815260200191505b50965050505050505060405180910390a150505050565b8380519060200120600160008781526020019081526020016000206000016040518082805460018160011615610100020316600290048015610e255780601f10610e03576101008083540402835291820191610e25565b820191906000526020600020905b815481529060010190602001808311610e11575b50509150506040518091039020148015610ec257508280519060200120600160008781526020019081526020016000206001016040518082805460018160011615610100020316600290048015610eb35780601f10610e91576101008083540402835291820191610eb3565b820191906000526020600020905b815481529060010190602001808311610e9f575b50509150506040518091039020145b8015610ede575060008581526001602052604090206002015482145b15610fe05760008581526001602090815260409091208251610f08926003909201918401906117d6565b506000858152600160209081526040808320600401805473ffffffffffffffffffffffffffffffffffffffff191633908117909155815180840182905282815285519281019290925284517f50f74ca45caac8020b8d891bd13ea5a2d79564986ee6a839f0d914896388322d94869492939283926060840192918701918190849084905b83811015610fa4578181015183820152602001610f8c565b50505050905090810190601f168015610fd15780820380516001836020036101000a031916815260200191505b50935050505060405180910390a15b5050505050565b6000602081815291815260409081902080548251601f60026000196101006001861615020190931692909204918201859004850281018501909352808352909283919083018282801561107b5780601f106110505761010080835404028352916020019161107b565b820191906000526020600020905b81548152906001019060200180831161105e57829003601f168201915b505050505090806001018054600181600116156101000203166002900480601f0160208091040260200160405190810160405280929190818152602001828054600181600116156101000203166002900480156111195780601f106110ee57610100808354040283529160200191611119565b820191906000526020600020905b8154815290600101906020018083116110fc57829003601f168201915b50505060028085018054604080516020601f60001961010060018716150201909416959095049283018590048502810185019091528181529596959450909250908301828280156111ab5780601f10611180576101008083540402835291602001916111ab565b820191906000526020600020905b81548152906001019060200180831161118e57829003601f168201915b5050505060038301805460408051602060026001851615610100026000190190941693909304601f810184900484028201840190925281815294959493509083018282801561123b5780601f106112105761010080835404028352916020019161123b565b820191906000526020600020905b81548152906001019060200180831161121e57829003601f168201915b50505060049093015491925050600160a060020a031685565b60016020818152600092835260409283902080548451600294821615610100026000190190911693909304601f81018390048302840183019094528383529283918301828280156112e65780601f106112bb576101008083540402835291602001916112e6565b820191906000526020600020905b8154815290600101906020018083116112c957829003601f168201915b505050505090806001018054600181600116156101000203166002900480601f0160208091040260200160405190810160405280929190818152602001828054600181600116156101000203166002900480156113845780601f1061135957610100808354040283529160200191611384565b820191906000526020600020905b81548152906001019060200180831161136757829003601f168201915b505050506002838101546003850180546040805160206001841615610100026000190190931695909504601f81018390048302860183019091528085529596929592945090919083018282801561123b5780601f106112105761010080835404028352916020019161123b565b6040805160a08101825284815260208082018590528183018490528251808201845260008082526060840191909152608083018190528781526001825292909220815180519293919261144792849201906117d6565b50602082810151805161146092600185019201906117d6565b5060408201516002820155606082015180516114869160038401916020909101906117d6565b5060808201518160040160006101000a815481600160a060020a030219169083600160a060020a031602179055509050507ffa348a37b2c95bb552cf01202b5d7079946c5b0a69a2a2d5f7e55501b4ff89c6838383604051808060200180602001848152602001838103835286818151815260200191508051906020019080838360005b8381101561152257818101518382015260200161150a565b50505050905090810190601f16801561154f5780820380516001836020036101000a031916815260200191505b50838103825285518152855160209182019187019080838360005b8381101561158257818101518382015260200161156a565b50505050905090810190601f1680156115af5780820380516001836020036101000a031916815260200191505b509550505050505060405180910390a150505050565b6000826001141561168d57818051906020012060008086815260200190815260200160002060030160405180828054600181600116156101000203166002900480156116485780601f10611626576101008083540402835291820191611648565b820191906000526020600020905b815481529060010190602001808311611634575b5050915050604051809103902014801561167b5750600084815260208190526040902060040154600160a060020a031633145b15611688575060016117cf565b6117cb565b826002141561174e57818051906020012060016000868152602001908152602001600020600301604051808280546001816001161561010002031660029004801561170f5780601f106116ed57610100808354040283529182019161170f565b820191906000526020600020905b8154815290600101906020018083116116fb575b5050915050604051809103902014801561167b5750600084815260016020526040902060040154600160a060020a0316331415611688575060016117cf565b815160208084019190912060408051808201909152601881527f31303034313031733130303331303170303530393130316700000000000000009201919091527fab8574b623da932771964eb614529767ff4b157efad8a05e79f20cfd49dac6a41480156117be575083621d7778145b156117cb575060016117cf565b5060005b9392505050565b828054600181600116156101000203166002900490600052602060002090601f016020900481019282601f1061181757805160ff1916838001178555611844565b82800160010185558215611844579182015b82811115611844578251825591602001919060010190611829565b50611850929150611854565b5090565b61186e91905b80821115611850576000815560010161185a565b9056fea165627a7a7230582050f887c28b7cc924973e94a86762bb98412878244fbb0119c05f1af7b0121def0029",
  "source": "pragma solidity ^0.5.0;\r\n\r\ncontract DrugCounterfiet\r\n{\r\n\r\n    struct Manufacturer{\r\n        string verificationId;\r\n        string name;\r\n\t\tstring location;\r\n\t\tstring password;\r\n\t\taddress manAddress;\r\n    }\r\n\t\r\n\tstruct Seller{\r\n        string name;\r\n\t\tstring location;\r\n\t\tuint manId;\r\n\t\tstring password;\r\n\t\taddress sellAddress;\r\n    }\r\n\r\n    mapping(uint => Manufacturer) public manufacturers;\r\n\tmapping(uint => Seller) public sellers;\r\n\t\r\n    event ManufacturerCreated(\r\n        string verificationId,\r\n        string name,\r\n        string location\r\n    );\r\n\t\r\n\tevent SellerCreated(\r\n        string name,\r\n        string location,\r\n\t\tuint manId\r\n    );\r\n    \r\n    event Registered(\r\n        string password,\r\n\t\taddress manAddress\r\n    );\r\n\r\n    function createManufacturer(uint _regid, string memory _verificationId, string memory _name, string memory _location) public{\r\n            manufacturers[_regid]=Manufacturer(_verificationId,_name,_location,\"\",0x0000000000000000000000000000000000000000);\r\n            emit ManufacturerCreated(_verificationId,_name,_location);\r\n\r\n    }\r\n\t\r\n\tfunction createSeller(uint _regid, string memory _name, string memory _location, uint _manId) public{\r\n            sellers[_regid]=Seller(_name,_location,_manId,\"\",0x0000000000000000000000000000000000000000);\r\n            emit SellerCreated(_name,_location,_manId);\r\n\r\n    }\r\n\r\n    function registerMan(uint _regid, string memory _password) public{\r\n        manufacturers[_regid].password=_password;\r\n        manufacturers[_regid].manAddress=msg.sender;\r\n        emit Registered(_password,msg.sender);\r\n    }\r\n\r\n    function registerSeller(uint _regid, string memory _name, string memory _location, uint _manId, string memory _password) public{\r\n        if(keccak256(bytes(sellers[_regid].name)) == keccak256(bytes(_name)) && keccak256(bytes(sellers[_regid].location)) == keccak256(bytes(_location)) && sellers[_regid].manId == _manId) {\r\n            sellers[_regid].password=_password;\r\n            sellers[_regid].sellAddress=msg.sender;\r\n            emit Registered(_password,msg.sender);\r\n        }\r\n    }\r\n\r\n    function login(uint _regid, uint _type, string memory _password) public view returns(bool){\r\n        if(_type==1) {\r\n            if(keccak256(bytes(manufacturers[_regid].password))==keccak256(bytes(_password)) && manufacturers[_regid].manAddress==msg.sender) {\r\n                return true;\r\n            }\r\n        }\r\n        else if(_type==2) {\r\n            if(keccak256(bytes(sellers[_regid].password))==keccak256(bytes(_password)) && sellers[_regid].sellAddress==msg.sender) {\r\n                return true;\r\n            }\r\n        }\r\n        else {\r\n            if(keccak256(bytes(\"1004101s1003101p0509101g\"))==keccak256(bytes(_password)) && _regid==1931128) {\r\n                return true;\r\n            }\r\n        }\r\n        return false;\r\n    }\r\n\r\n}",
  "sourcePath": "D:/PSG Semester 7/Project Work 1/Drug_Counterfiet/contracts/DrugCounterfiet.sol",
  "compiler": {
    "name": "solc",
    "version": "0.5.0+commit.1d4f565a.Emscripten.clang"
  },
  "schemaVersion": "3.0.1",
  "updatedAt": "2021-10-14T18:44:22.929Z",
  "devdoc": {
    "methods": {}
  },
  "userdoc": {
    "methods": {}
  }
}