{
  "contractName": "DrugCounterfiet",
  "abi": [
    {
      "constant": true,
      "inputs": [
        {
          "name": "",
          "type": "uint256"
        }
      ],
      "name": "manufacturers",
      "outputs": [
        {
          "name": "name",
          "type": "string"
        },
        {
          "name": "location",
          "type": "string"
        },
        {
          "name": "password",
          "type": "string"
        },
        {
          "name": "manAddress",
          "type": "address"
        }
      ],
      "payable": false,
      "stateMutability": "view",
      "type": "function",
      "signature": "0x90175af1"
    },
    {
      "constant": true,
      "inputs": [
        {
          "name": "",
          "type": "uint256"
        }
      ],
      "name": "sellers",
      "outputs": [
        {
          "name": "name",
          "type": "string"
        },
        {
          "name": "location",
          "type": "string"
        },
        {
          "name": "manId",
          "type": "uint256"
        },
        {
          "name": "password",
          "type": "string"
        },
        {
          "name": "sellAddress",
          "type": "address"
        }
      ],
      "payable": false,
      "stateMutability": "view",
      "type": "function",
      "signature": "0xcee26ed5"
    },
    {
      "inputs": [],
      "payable": false,
      "stateMutability": "nonpayable",
      "type": "constructor",
      "signature": "constructor"
    },
    {
      "anonymous": false,
      "inputs": [
        {
          "indexed": false,
          "name": "name",
          "type": "string"
        },
        {
          "indexed": false,
          "name": "location",
          "type": "string"
        }
      ],
      "name": "ManufacturerCreated",
      "type": "event",
      "signature": "0xb2661ab8ee35e4985fb09b4bd18597a550ae1d921e275bb87e7e6ba98a50a0ae"
    },
    {
      "anonymous": false,
      "inputs": [
        {
          "indexed": false,
          "name": "name",
          "type": "string"
        },
        {
          "indexed": false,
          "name": "location",
          "type": "string"
        },
        {
          "indexed": false,
          "name": "manId",
          "type": "uint256"
        }
      ],
      "name": "SellerCreated",
      "type": "event",
      "signature": "0xfa348a37b2c95bb552cf01202b5d7079946c5b0a69a2a2d5f7e55501b4ff89c6"
    },
    {
      "anonymous": false,
      "inputs": [
        {
          "indexed": false,
          "name": "password",
          "type": "string"
        },
        {
          "indexed": false,
          "name": "manAddress",
          "type": "address"
        }
      ],
      "name": "Registered",
      "type": "event",
      "signature": "0x50f74ca45caac8020b8d891bd13ea5a2d79564986ee6a839f0d914896388322d"
    },
    {
      "constant": false,
      "inputs": [
        {
          "name": "_regid",
          "type": "uint256"
        },
        {
          "name": "_name",
          "type": "string"
        },
        {
          "name": "_location",
          "type": "string"
        }
      ],
      "name": "createManufacturer",
      "outputs": [],
      "payable": false,
      "stateMutability": "nonpayable",
      "type": "function",
      "signature": "0xae04e6f0"
    },
    {
      "constant": false,
      "inputs": [
        {
          "name": "_regid",
          "type": "uint256"
        },
        {
          "name": "_name",
          "type": "string"
        },
        {
          "name": "_location",
          "type": "string"
        },
        {
          "name": "_manId",
          "type": "uint256"
        }
      ],
      "name": "createSeller",
      "outputs": [],
      "payable": false,
      "stateMutability": "nonpayable",
      "type": "function",
      "signature": "0xe80fd600"
    },
    {
      "constant": false,
      "inputs": [
        {
          "name": "_regid",
          "type": "uint256"
        },
        {
          "name": "_name",
          "type": "string"
        },
        {
          "name": "_location",
          "type": "string"
        },
        {
          "name": "_password",
          "type": "string"
        }
      ],
      "name": "registerMan",
      "outputs": [],
      "payable": false,
      "stateMutability": "nonpayable",
      "type": "function",
      "signature": "0x87913382"
    },
    {
      "constant": false,
      "inputs": [
        {
          "name": "_regid",
          "type": "uint256"
        },
        {
          "name": "_name",
          "type": "string"
        },
        {
          "name": "_location",
          "type": "string"
        },
        {
          "name": "_manId",
          "type": "uint256"
        },
        {
          "name": "_password",
          "type": "string"
        }
      ],
      "name": "registerSeller",
      "outputs": [],
      "payable": false,
      "stateMutability": "nonpayable",
      "type": "function",
      "signature": "0x82f5622b"
    },
    {
      "constant": true,
      "inputs": [
        {
          "name": "_regid",
          "type": "uint256"
        },
        {
          "name": "_type",
          "type": "uint256"
        },
        {
          "name": "_password",
          "type": "string"
        }
      ],
      "name": "login",
      "outputs": [
        {
          "name": "",
          "type": "bool"
        }
      ],
      "payable": false,
      "stateMutability": "view",
      "type": "function",
      "signature": "0xe9bb74f2"
    }
  ],
  "bytecode": "0x60806040523480156200001157600080fd5b50620000c1616bf56040805190810160405280600b81526020017f41737472615a656e656361000000000000000000000000000000000000000000815250606060405190810160405280602481526020017f4176696e6173686920526f61642c205065656c616d6564752c20436f696d626181526020017f746f726500000000000000000000000000000000000000000000000000000000815250620000c7640100000000026401000000009004565b62000331565b60408051608081018252838152602080820184905282518082018452600080825283850191909152606083018190528681528082529290922081518051929391926200011792849201906200028c565b5060208281015180516200013292600185019201906200028c565b5060408201518051620001509160028401916020909101906200028c565b5060608201518160030160006101000a815481600160a060020a030219169083600160a060020a031602179055509050507fb2661ab8ee35e4985fb09b4bd18597a550ae1d921e275bb87e7e6ba98a50a0ae8282604051808060200180602001838103835285818151815260200191508051906020019080838360005b83811015620001e7578181015183820152602001620001cd565b50505050905090810190601f168015620002155780820380516001836020036101000a031916815260200191505b50838103825284518152845160209182019186019080838360005b838110156200024a57818101518382015260200162000230565b50505050905090810190601f168015620002785780820380516001836020036101000a031916815260200191505b5094505050505060405180910390a1505050565b828054600181600116156101000203166002900490600052602060002090601f016020900481019282601f10620002cf57805160ff1916838001178555620002ff565b82800160010185558215620002ff579182015b82811115620002ff578251825591602001919060010190620002e2565b506200030d92915062000311565b5090565b6200032e91905b808211156200030d576000815560010162000318565b90565b61187480620003416000396000f3fe6080604052600436106100825763ffffffff7c010000000000000000000000000000000000000000000000000000000060003504166382f5622b8114610087578063879133821461025957806390175af114610421578063ae04e6f01461059e578063cee26ed5146106df578063e80fd6001461086d578063e9bb74f2146109b0575b600080fd5b34801561009357600080fd5b50610257600480360360a08110156100aa57600080fd5b813591908101906040810160208201356401000000008111156100cc57600080fd5b8201836020820111156100de57600080fd5b8035906020019184600183028401116401000000008311171561010057600080fd5b91908080601f016020809104026020016040519081016040528093929190818152602001838380828437600092019190915250929594936020810193503591505064010000000081111561015357600080fd5b82018360208201111561016557600080fd5b8035906020019184600183028401116401000000008311171561018757600080fd5b91908080601f016020809104026020016040519081016040528093929190818152602001838380828437600092019190915250929584359590949093506040810192506020013590506401000000008111156101e257600080fd5b8201836020820111156101f457600080fd5b8035906020019184600183028401116401000000008311171561021657600080fd5b91908080601f016020809104026020016040519081016040528093929190818152602001838380828437600092019190915250929550610a83945050505050565b005b34801561026557600080fd5b506102576004803603608081101561027c57600080fd5b8135919081019060408101602082013564010000000081111561029e57600080fd5b8201836020820111156102b057600080fd5b803590602001918460018302840111640100000000831117156102d257600080fd5b91908080601f016020809104026020016040519081016040528093929190818152602001838380828437600092019190915250929594936020810193503591505064010000000081111561032557600080fd5b82018360208201111561033757600080fd5b8035906020019184600183028401116401000000008311171561035957600080fd5b91908080601f01602080910402602001604051908101604052809392919081815260200183838082843760009201919091525092959493602081019350359150506401000000008111156103ac57600080fd5b8201836020820111156103be57600080fd5b803590602001918460018302840111640100000000831117156103e057600080fd5b91908080601f016020809104026020016040519081016040528093929190818152602001838380828437600092019190915250929550610cbe945050505050565b34801561042d57600080fd5b5061044b6004803603602081101561044457600080fd5b5035610ed6565b60408051600160a060020a0383166060820152608080825286519082015285519091829160208084019284019160a08501918a019080838360005b8381101561049e578181015183820152602001610486565b50505050905090810190601f1680156104cb5780820380516001836020036101000a031916815260200191505b50848103835287518152875160209182019189019080838360005b838110156104fe5781810151838201526020016104e6565b50505050905090810190601f16801561052b5780820380516001836020036101000a031916815260200191505b50848103825286518152865160209182019188019080838360005b8381101561055e578181015183820152602001610546565b50505050905090810190601f16801561058b5780820380516001836020036101000a031916815260200191505b5097505050505050505060405180910390f35b3480156105aa57600080fd5b50610257600480360360608110156105c157600080fd5b813591908101906040810160208201356401000000008111156105e357600080fd5b8201836020820111156105f557600080fd5b8035906020019184600183028401116401000000008311171561061757600080fd5b91908080601f016020809104026020016040519081016040528093929190818152602001838380828437600092019190915250929594936020810193503591505064010000000081111561066a57600080fd5b82018360208201111561067c57600080fd5b8035906020019184600183028401116401000000008311171561069e57600080fd5b91908080601f0160208091040260200160405190810160405280939291908181526020018383808284376000920191909152509295506110b3945050505050565b3480156106eb57600080fd5b506107096004803603602081101561070257600080fd5b503561126c565b6040518080602001806020018681526020018060200185600160a060020a0316600160a060020a03168152602001848103845289818151815260200191508051906020019080838360005b8381101561076c578181015183820152602001610754565b50505050905090810190601f1680156107995780820380516001836020036101000a031916815260200191505b5084810383528851815288516020918201918a019080838360005b838110156107cc5781810151838201526020016107b4565b50505050905090810190601f1680156107f95780820380516001836020036101000a031916815260200191505b50848103825286518152865160209182019188019080838360005b8381101561082c578181015183820152602001610814565b50505050905090810190601f1680156108595780820380516001836020036101000a031916815260200191505b509850505050505050505060405180910390f35b34801561087957600080fd5b506102576004803603608081101561089057600080fd5b813591908101906040810160208201356401000000008111156108b257600080fd5b8201836020820111156108c457600080fd5b803590602001918460018302840111640100000000831117156108e657600080fd5b91908080601f016020809104026020016040519081016040528093929190818152602001838380828437600092019190915250929594936020810193503591505064010000000081111561093957600080fd5b82018360208201111561094b57600080fd5b8035906020019184600183028401116401000000008311171561096d57600080fd5b91908080601f016020809104026020016040519081016040528093929190818152602001838380828437600092019190915250929550509135925061144d915050565b3480156109bc57600080fd5b50610a6f600480360360608110156109d357600080fd5b8135916020810135918101906060810160408201356401000000008111156109fa57600080fd5b820183602082011115610a0c57600080fd5b80359060200191846001830284011164010000000083111715610a2e57600080fd5b91908080601f016020809104026020016040519081016040528093929190818152602001838380828437600092019190915250929550611621945050505050565b604080519115158252519081900360200190f35b8380519060200120600160008781526020019081526020016000206000016040518082805460018160011615610100020316600290048015610afc5780601f10610ada576101008083540402835291820191610afc565b820191906000526020600020905b815481529060010190602001808311610ae8575b50509150506040518091039020148015610b9957508280519060200120600160008781526020019081526020016000206001016040518082805460018160011615610100020316600290048015610b8a5780601f10610b68576101008083540402835291820191610b8a565b820191906000526020600020905b815481529060010190602001808311610b76575b50509150506040518091039020145b8015610bb5575060008581526001602052604090206002015482145b15610cb75760008581526001602090815260409091208251610bdf926003909201918401906117ad565b506000858152600160209081526040808320600401805473ffffffffffffffffffffffffffffffffffffffff191633908117909155815180840182905282815285519281019290925284517f50f74ca45caac8020b8d891bd13ea5a2d79564986ee6a839f0d914896388322d94869492939283926060840192918701918190849084905b83811015610c7b578181015183820152602001610c63565b50505050905090810190601f168015610ca85780820380516001836020036101000a031916815260200191505b50935050505060405180910390a15b5050505050565b82805190602001206000808681526020019081526020016000206000016040518082805460018160011615610100020316600290048015610d365780601f10610d14576101008083540402835291820191610d36565b820191906000526020600020905b815481529060010190602001808311610d22575b50509150506040518091039020148015610dd2575081805190602001206000808681526020019081526020016000206001016040518082805460018160011615610100020316600290048015610dc35780601f10610da1576101008083540402835291820191610dc3565b820191906000526020600020905b815481529060010190602001808311610daf575b50509150506040518091039020145b15610ed0576000848152602081815260409091208251610dfa926002909201918401906117ad565b50600084815260208181526040808320600301805473ffffffffffffffffffffffffffffffffffffffff191633908117909155815180840182905282815285519281019290925284517f50f74ca45caac8020b8d891bd13ea5a2d79564986ee6a839f0d914896388322d94869492939283926060840192918701918190849084905b83811015610e94578181015183820152602001610e7c565b50505050905090810190601f168015610ec15780820380516001836020036101000a031916815260200191505b50935050505060405180910390a15b50505050565b6000602081815291815260409081902080548251601f600260001961010060018616150201909316929092049182018590048502810185019093528083529092839190830182828015610f6a5780601f10610f3f57610100808354040283529160200191610f6a565b820191906000526020600020905b815481529060010190602001808311610f4d57829003601f168201915b505050505090806001018054600181600116156101000203166002900480601f0160208091040260200160405190810160405280929190818152602001828054600181600116156101000203166002900480156110085780601f10610fdd57610100808354040283529160200191611008565b820191906000526020600020905b815481529060010190602001808311610feb57829003601f168201915b50505060028085018054604080516020601f600019610100600187161502019094169590950492830185900485028101850190915281815295969594509092509083018282801561109a5780601f1061106f5761010080835404028352916020019161109a565b820191906000526020600020905b81548152906001019060200180831161107d57829003601f168201915b50505060039093015491925050600160a060020a031684565b604080516080810182528381526020808201849052825180820184526000808252838501919091526060830181905286815280825292909220815180519293919261110192849201906117ad565b50602082810151805161111a92600185019201906117ad565b50604082015180516111369160028401916020909101906117ad565b5060608201518160030160006101000a815481600160a060020a030219169083600160a060020a031602179055509050507fb2661ab8ee35e4985fb09b4bd18597a550ae1d921e275bb87e7e6ba98a50a0ae8282604051808060200180602001838103835285818151815260200191508051906020019080838360005b838110156111cb5781810151838201526020016111b3565b50505050905090810190601f1680156111f85780820380516001836020036101000a031916815260200191505b50838103825284518152845160209182019186019080838360005b8381101561122b578181015183820152602001611213565b50505050905090810190601f1680156112585780820380516001836020036101000a031916815260200191505b5094505050505060405180910390a1505050565b60016020818152600092835260409283902080548451600294821615610100026000190190911693909304601f81018390048302840183019094528383529283918301828280156112fe5780601f106112d3576101008083540402835291602001916112fe565b820191906000526020600020905b8154815290600101906020018083116112e157829003601f168201915b505050505090806001018054600181600116156101000203166002900480601f01602080910402602001604051908101604052809291908181526020018280546001816001161561010002031660029004801561139c5780601f106113715761010080835404028352916020019161139c565b820191906000526020600020905b81548152906001019060200180831161137f57829003601f168201915b505050506002838101546003850180546040805160206001841615610100026000190190931695909504601f8101839004830286018301909152808552959692959294509091908301828280156114345780601f1061140957610100808354040283529160200191611434565b820191906000526020600020905b81548152906001019060200180831161141757829003601f168201915b50505060049093015491925050600160a060020a031685565b6040805160a0810182528481526020808201859052818301849052825180820184526000808252606084019190915260808301819052878152600182529290922081518051929391926114a392849201906117ad565b5060208281015180516114bc92600185019201906117ad565b5060408201516002820155606082015180516114e29160038401916020909101906117ad565b5060808201518160040160006101000a815481600160a060020a030219169083600160a060020a031602179055509050507ffa348a37b2c95bb552cf01202b5d7079946c5b0a69a2a2d5f7e55501b4ff89c6838383604051808060200180602001848152602001838103835286818151815260200191508051906020019080838360005b8381101561157e578181015183820152602001611566565b50505050905090810190601f1680156115ab5780820380516001836020036101000a031916815260200191505b50838103825285518152855160209182019187019080838360005b838110156115de5781810151838201526020016115c6565b50505050905090810190601f16801561160b5780820380516001836020036101000a031916815260200191505b509550505050505060405180910390a150505050565b600082600114156116e957818051906020012060008086815260200190815260200160002060020160405180828054600181600116156101000203166002900480156116a45780601f106116825761010080835404028352918201916116a4565b820191906000526020600020905b815481529060010190602001808311611690575b505091505060405180910390201480156116d75750600084815260208190526040902060030154600160a060020a031633145b156116e4575060016117a6565b6117a2565b81805190602001206001600086815260200190815260200160002060030160405180828054600181600116156101000203166002900480156117625780601f10611740576101008083540402835291820191611762565b820191906000526020600020905b81548152906001019060200180831161174e575b505091505060405180910390201480156117955750600084815260016020526040902060040154600160a060020a031633145b156117a2575060016117a6565b5060005b9392505050565b828054600181600116156101000203166002900490600052602060002090601f016020900481019282601f106117ee57805160ff191683800117855561181b565b8280016001018555821561181b579182015b8281111561181b578251825591602001919060010190611800565b5061182792915061182b565b5090565b61184591905b808211156118275760008155600101611831565b9056fea165627a7a72305820efff22f546a310d62132b5e43f20b1e8337b1f4ee814c05d22ceb0c1518d21860029",
  "source": "pragma solidity ^0.5.0;\r\n\r\ncontract DrugCounterfiet\r\n{\r\n\r\n    struct Manufacturer{\r\n        string name;\r\n\t\tstring location;\r\n\t\tstring password;\r\n\t\taddress manAddress;\r\n    }\r\n\t\r\n\tstruct Seller{\r\n        string name;\r\n\t\tstring location;\r\n\t\tuint manId;\r\n\t\tstring password;\r\n\t\taddress sellAddress;\r\n    }\r\n\r\n    mapping(uint => Manufacturer) public manufacturers;\r\n\tmapping(uint => Seller) public sellers;\r\n\t\r\n    event ManufacturerCreated(\r\n        string name,\r\n        string location\r\n    );\r\n\t\r\n\tevent SellerCreated(\r\n        string name,\r\n        string location,\r\n\t\tuint manId\r\n    );\r\n    \r\n    event Registered(\r\n        string password,\r\n\t\taddress manAddress\r\n    );\r\n    \r\n    constructor() public{\r\n        createManufacturer(27637,\"AstraZeneca\",\"Avinashi Road, Peelamedu, Coimbatore\");\r\n    }\r\n\r\n    function createManufacturer(uint _regid, string memory _name, string memory _location) public{\r\n            manufacturers[_regid]=Manufacturer(_name,_location,\"\",0x0000000000000000000000000000000000000000);\r\n            emit ManufacturerCreated(_name,_location);\r\n\r\n    }\r\n\t\r\n\tfunction createSeller(uint _regid, string memory _name, string memory _location, uint _manId) public{\r\n            sellers[_regid]=Seller(_name,_location,_manId,\"\",0x0000000000000000000000000000000000000000);\r\n            emit SellerCreated(_name,_location,_manId);\r\n\r\n    }\r\n\r\n    function registerMan(uint _regid, string memory _name, string memory _location, string memory _password) public{\r\n        if(keccak256(bytes(manufacturers[_regid].name)) == keccak256(bytes(_name)) && keccak256(bytes(manufacturers[_regid].location)) == keccak256(bytes(_location))) {\r\n            manufacturers[_regid].password=_password;\r\n            manufacturers[_regid].manAddress=msg.sender;\r\n            emit Registered(_password,msg.sender);\r\n        }\r\n    }\r\n\r\n    function registerSeller(uint _regid, string memory _name, string memory _location, uint _manId, string memory _password) public{\r\n        if(keccak256(bytes(sellers[_regid].name)) == keccak256(bytes(_name)) && keccak256(bytes(sellers[_regid].location)) == keccak256(bytes(_location)) && sellers[_regid].manId == _manId) {\r\n            sellers[_regid].password=_password;\r\n            sellers[_regid].sellAddress=msg.sender;\r\n            emit Registered(_password,msg.sender);\r\n        }\r\n    }\r\n\r\n    function login(uint _regid, uint _type, string memory _password) public view returns(bool){\r\n        if(_type==1) {\r\n            if(keccak256(bytes(manufacturers[_regid].password))==keccak256(bytes(_password)) && manufacturers[_regid].manAddress==msg.sender) {\r\n                return true;\r\n            }\r\n        }\r\n        else {\r\n            if(keccak256(bytes(sellers[_regid].password))==keccak256(bytes(_password)) && sellers[_regid].sellAddress==msg.sender) {\r\n                return true;\r\n            }\r\n        }\r\n        return false;\r\n    }\r\n\r\n}",
  "sourcePath": "D:/PSG Semester 7/Project Work 1/Drug_Counterfiet/contracts/DrugCounterfiet.sol",
  "compiler": {
    "name": "solc",
    "version": "0.5.0+commit.1d4f565a.Emscripten.clang"
  },
  "schemaVersion": "3.0.1",
  "updatedAt": "2021-10-12T12:05:18.640Z",
  "devdoc": {
    "methods": {}
  },
  "userdoc": {
    "methods": {}
  }
}