{
  "contractName": "DrugCounterfiet",
  "abi": [
    {
      "constant": true,
      "inputs": [
        {
          "name": "",
          "type": "uint256"
        }
      ],
      "name": "manufacturers",
      "outputs": [
        {
          "name": "verificationId",
          "type": "string"
        },
        {
          "name": "name",
          "type": "string"
        },
        {
          "name": "location",
          "type": "string"
        },
        {
          "name": "password",
          "type": "string"
        },
        {
          "name": "manAddress",
          "type": "address"
        }
      ],
      "payable": false,
      "stateMutability": "view",
      "type": "function",
      "signature": "0x90175af1"
    },
    {
      "constant": true,
      "inputs": [
        {
          "name": "",
          "type": "uint256"
        }
      ],
      "name": "orders",
      "outputs": [
        {
          "name": "drugName",
          "type": "string"
        },
        {
          "name": "quantity",
          "type": "string"
        },
        {
          "name": "orderStatus",
          "type": "string"
        },
        {
          "name": "orderManuDate",
          "type": "string"
        },
        {
          "name": "orderDelvDate",
          "type": "string"
        },
        {
          "name": "manName",
          "type": "string"
        },
        {
          "name": "sellName",
          "type": "string"
        }
      ],
      "payable": false,
      "stateMutability": "view",
      "type": "function",
      "signature": "0xa85c38ef"
    },
    {
      "constant": true,
      "inputs": [
        {
          "name": "",
          "type": "uint256"
        }
      ],
      "name": "sellers",
      "outputs": [
        {
          "name": "name",
          "type": "string"
        },
        {
          "name": "location",
          "type": "string"
        },
        {
          "name": "manId",
          "type": "uint256"
        },
        {
          "name": "password",
          "type": "string"
        },
        {
          "name": "sellAddress",
          "type": "address"
        }
      ],
      "payable": false,
      "stateMutability": "view",
      "type": "function",
      "signature": "0xcee26ed5"
    },
    {
      "anonymous": false,
      "inputs": [
        {
          "indexed": false,
          "name": "verificationId",
          "type": "string"
        },
        {
          "indexed": false,
          "name": "name",
          "type": "string"
        },
        {
          "indexed": false,
          "name": "location",
          "type": "string"
        }
      ],
      "name": "ManufacturerCreated",
      "type": "event",
      "signature": "0x165040bdbacef6df8fe21f051768c2880af7e818c00a686feb9dad36f52f62f4"
    },
    {
      "anonymous": false,
      "inputs": [
        {
          "indexed": false,
          "name": "name",
          "type": "string"
        },
        {
          "indexed": false,
          "name": "location",
          "type": "string"
        },
        {
          "indexed": false,
          "name": "manId",
          "type": "uint256"
        }
      ],
      "name": "SellerCreated",
      "type": "event",
      "signature": "0xfa348a37b2c95bb552cf01202b5d7079946c5b0a69a2a2d5f7e55501b4ff89c6"
    },
    {
      "anonymous": false,
      "inputs": [
        {
          "indexed": false,
          "name": "name",
          "type": "string"
        },
        {
          "indexed": false,
          "name": "quantity",
          "type": "string"
        },
        {
          "indexed": false,
          "name": "status",
          "type": "string"
        },
        {
          "indexed": false,
          "name": "manId",
          "type": "uint256"
        },
        {
          "indexed": false,
          "name": "sellId",
          "type": "uint256"
        }
      ],
      "name": "OrderCreated",
      "type": "event",
      "signature": "0x5e3bcdca6985aca4c2f214303c4427d409e4c631b5a08ef149bc53a500ffe0b4"
    },
    {
      "anonymous": false,
      "inputs": [
        {
          "indexed": false,
          "name": "password",
          "type": "string"
        },
        {
          "indexed": false,
          "name": "manAddress",
          "type": "address"
        }
      ],
      "name": "Registered",
      "type": "event",
      "signature": "0x50f74ca45caac8020b8d891bd13ea5a2d79564986ee6a839f0d914896388322d"
    },
    {
      "anonymous": false,
      "inputs": [
        {
          "indexed": false,
          "name": "drugName",
          "type": "string"
        },
        {
          "indexed": false,
          "name": "price",
          "type": "string"
        }
      ],
      "name": "DrugCreated",
      "type": "event",
      "signature": "0xce15fffe5acf0a2dabbecf2f81c67e239f03a26fb82c9a12f5335a542ea285af"
    },
    {
      "constant": false,
      "inputs": [
        {
          "name": "_regid",
          "type": "uint256"
        },
        {
          "name": "_verificationId",
          "type": "string"
        },
        {
          "name": "_name",
          "type": "string"
        },
        {
          "name": "_location",
          "type": "string"
        }
      ],
      "name": "createManufacturer",
      "outputs": [],
      "payable": false,
      "stateMutability": "nonpayable",
      "type": "function",
      "signature": "0x5f3a6acf"
    },
    {
      "constant": true,
      "inputs": [
        {
          "name": "_regid",
          "type": "uint256"
        },
        {
          "name": "_type",
          "type": "uint256"
        }
      ],
      "name": "viewOngOrdersLength",
      "outputs": [
        {
          "name": "",
          "type": "uint256"
        }
      ],
      "payable": false,
      "stateMutability": "view",
      "type": "function",
      "signature": "0x54c4128b"
    },
    {
      "constant": true,
      "inputs": [
        {
          "name": "_regid",
          "type": "uint256"
        },
        {
          "name": "index",
          "type": "uint256"
        },
        {
          "name": "_type",
          "type": "uint256"
        }
      ],
      "name": "viewOngOrders",
      "outputs": [
        {
          "name": "",
          "type": "uint256"
        }
      ],
      "payable": false,
      "stateMutability": "view",
      "type": "function",
      "signature": "0x6bce2689"
    },
    {
      "constant": false,
      "inputs": [
        {
          "name": "_regid",
          "type": "uint256"
        },
        {
          "name": "_name",
          "type": "string"
        },
        {
          "name": "_quant",
          "type": "string"
        },
        {
          "name": "_status",
          "type": "string"
        },
        {
          "name": "_manId",
          "type": "uint256"
        },
        {
          "name": "_sellId",
          "type": "uint256"
        }
      ],
      "name": "createOrder",
      "outputs": [],
      "payable": false,
      "stateMutability": "nonpayable",
      "type": "function",
      "signature": "0xecf23b32"
    },
    {
      "constant": false,
      "inputs": [
        {
          "name": "_regid",
          "type": "uint256"
        },
        {
          "name": "_name",
          "type": "string"
        },
        {
          "name": "_location",
          "type": "string"
        },
        {
          "name": "_manId",
          "type": "uint256"
        }
      ],
      "name": "createSeller",
      "outputs": [],
      "payable": false,
      "stateMutability": "nonpayable",
      "type": "function",
      "signature": "0xe80fd600"
    },
    {
      "constant": false,
      "inputs": [
        {
          "name": "_regid",
          "type": "uint256"
        },
        {
          "name": "_password",
          "type": "string"
        }
      ],
      "name": "registerMan",
      "outputs": [],
      "payable": false,
      "stateMutability": "nonpayable",
      "type": "function",
      "signature": "0x276dde9d"
    },
    {
      "constant": false,
      "inputs": [
        {
          "name": "_regid",
          "type": "uint256"
        },
        {
          "name": "_password",
          "type": "string"
        }
      ],
      "name": "registerSeller",
      "outputs": [],
      "payable": false,
      "stateMutability": "nonpayable",
      "type": "function",
      "signature": "0x13a48fd0"
    },
    {
      "constant": false,
      "inputs": [
        {
          "name": "_regid",
          "type": "uint256"
        },
        {
          "name": "_drug",
          "type": "string"
        },
        {
          "name": "_price",
          "type": "string"
        }
      ],
      "name": "addDrugs",
      "outputs": [],
      "payable": false,
      "stateMutability": "nonpayable",
      "type": "function",
      "signature": "0x25f74376"
    },
    {
      "constant": true,
      "inputs": [
        {
          "name": "_regid",
          "type": "uint256"
        }
      ],
      "name": "viewDrugsLength",
      "outputs": [
        {
          "name": "",
          "type": "uint256"
        }
      ],
      "payable": false,
      "stateMutability": "view",
      "type": "function",
      "signature": "0xa7458dc1"
    },
    {
      "constant": true,
      "inputs": [
        {
          "name": "_regid",
          "type": "uint256"
        },
        {
          "name": "index",
          "type": "uint256"
        }
      ],
      "name": "viewDrugs",
      "outputs": [
        {
          "name": "",
          "type": "string"
        }
      ],
      "payable": false,
      "stateMutability": "view",
      "type": "function",
      "signature": "0xd0f6e955"
    }
  ],
  "bytecode": "0x608060405234801561001057600080fd5b50612431806100206000396000f3fe6080604052600436106100c45763ffffffff7c010000000000000000000000000000000000000000000000000000000060003504166313a48fd081146100c957806325f7437614610185578063276dde9d146102c657806354c4128b146103805780635f3a6acf146103c25780636bce26891461058a57806390175af1146105c0578063a7458dc1146107c7578063a85c38ef146107f1578063cee26ed514610afa578063d0f6e95514610ca2578063e80fd60014610d47578063ecf23b3214610e8a575b600080fd5b3480156100d557600080fd5b50610183600480360360408110156100ec57600080fd5b8135919081019060408101602082013564010000000081111561010e57600080fd5b82018360208201111561012057600080fd5b8035906020019184600183028401116401000000008311171561014257600080fd5b91908080601f016020809104026020016040519081016040528093929190818152602001838380828437600092019190915250929550611057945050505050565b005b34801561019157600080fd5b50610183600480360360608110156101a857600080fd5b813591908101906040810160208201356401000000008111156101ca57600080fd5b8201836020820111156101dc57600080fd5b803590602001918460018302840111640100000000831117156101fe57600080fd5b91908080601f016020809104026020016040519081016040528093929190818152602001838380828437600092019190915250929594936020810193503591505064010000000081111561025157600080fd5b82018360208201111561026357600080fd5b8035906020019184600183028401116401000000008311171561028557600080fd5b91908080601f016020809104026020016040519081016040528093929190818152602001838380828437600092019190915250929550611157945050505050565b3480156102d257600080fd5b50610183600480360360408110156102e957600080fd5b8135919081019060408101602082013564010000000081111561030b57600080fd5b82018360208201111561031d57600080fd5b8035906020019184600183028401116401000000008311171561033f57600080fd5b91908080601f0160208091040260200160405190810160405280939291908181526020018383808284376000920191909152509295506112ca945050505050565b34801561038c57600080fd5b506103b0600480360360408110156103a357600080fd5b5080359060200135611386565b60408051918252519081900360200190f35b3480156103ce57600080fd5b50610183600480360360808110156103e557600080fd5b8135919081019060408101602082013564010000000081111561040757600080fd5b82018360208201111561041957600080fd5b8035906020019184600183028401116401000000008311171561043b57600080fd5b91908080601f016020809104026020016040519081016040528093929190818152602001838380828437600092019190915250929594936020810193503591505064010000000081111561048e57600080fd5b8201836020820111156104a057600080fd5b803590602001918460018302840111640100000000831117156104c257600080fd5b91908080601f016020809104026020016040519081016040528093929190818152602001838380828437600092019190915250929594936020810193503591505064010000000081111561051557600080fd5b82018360208201111561052757600080fd5b8035906020019184600183028401116401000000008311171561054957600080fd5b91908080601f0160208091040260200160405190810160405280939291908181526020018383808284376000920191909152509295506113c3945050505050565b34801561059657600080fd5b506103b0600480360360608110156105ad57600080fd5b5080359060208101359060400135611596565b3480156105cc57600080fd5b506105ea600480360360208110156105e357600080fd5b50356115f4565b60405180806020018060200180602001806020018673ffffffffffffffffffffffffffffffffffffffff1673ffffffffffffffffffffffffffffffffffffffff16815260200185810385528a818151815260200191508051906020019080838360005b8381101561066557818101518382015260200161064d565b50505050905090810190601f1680156106925780820380516001836020036101000a031916815260200191505b5085810384528951815289516020918201918b019080838360005b838110156106c55781810151838201526020016106ad565b50505050905090810190601f1680156106f25780820380516001836020036101000a031916815260200191505b5085810383528851815288516020918201918a019080838360005b8381101561072557818101518382015260200161070d565b50505050905090810190601f1680156107525780820380516001836020036101000a031916815260200191505b50858103825287518152875160209182019189019080838360005b8381101561078557818101518382015260200161076d565b50505050905090810190601f1680156107b25780820380516001836020036101000a031916815260200191505b50995050505050505050505060405180910390f35b3480156107d357600080fd5b506103b0600480360360208110156107ea57600080fd5b503561186e565b3480156107fd57600080fd5b5061081b6004803603602081101561081457600080fd5b5035611883565b604051808060200180602001806020018060200180602001806020018060200188810388528f818151815260200191508051906020019080838360005b83811015610870578181015183820152602001610858565b50505050905090810190601f16801561089d5780820380516001836020036101000a031916815260200191505b5088810387528e818151815260200191508051906020019080838360005b838110156108d35781810151838201526020016108bb565b50505050905090810190601f1680156109005780820380516001836020036101000a031916815260200191505b5088810386528d5181528d516020918201918f019080838360005b8381101561093357818101518382015260200161091b565b50505050905090810190601f1680156109605780820380516001836020036101000a031916815260200191505b5088810385528c5181528c516020918201918e019080838360005b8381101561099357818101518382015260200161097b565b50505050905090810190601f1680156109c05780820380516001836020036101000a031916815260200191505b5088810384528b5181528b516020918201918d019080838360005b838110156109f35781810151838201526020016109db565b50505050905090810190601f168015610a205780820380516001836020036101000a031916815260200191505b5088810383528a5181528a516020918201918c019080838360005b83811015610a53578181015183820152602001610a3b565b50505050905090810190601f168015610a805780820380516001836020036101000a031916815260200191505b5088810382528951815289516020918201918b019080838360005b83811015610ab3578181015183820152602001610a9b565b50505050905090810190601f168015610ae05780820380516001836020036101000a031916815260200191505b509e50505050505050505050505050505060405180910390f35b348015610b0657600080fd5b50610b2460048036036020811015610b1d57600080fd5b5035611c8e565b604051808060200180602001868152602001806020018573ffffffffffffffffffffffffffffffffffffffff1673ffffffffffffffffffffffffffffffffffffffff168152602001848103845289818151815260200191508051906020019080838360005b83811015610ba1578181015183820152602001610b89565b50505050905090810190601f168015610bce5780820380516001836020036101000a031916815260200191505b5084810383528851815288516020918201918a019080838360005b83811015610c01578181015183820152602001610be9565b50505050905090810190601f168015610c2e5780820380516001836020036101000a031916815260200191505b50848103825286518152865160209182019188019080838360005b83811015610c61578181015183820152602001610c49565b50505050905090810190601f168015610c8e5780820380516001836020036101000a031916815260200191505b509850505050505050505060405180910390f35b348015610cae57600080fd5b50610cd260048036036040811015610cc557600080fd5b5080359060200135611e2b565b6040805160208082528351818301528351919283929083019185019080838360005b83811015610d0c578181015183820152602001610cf4565b50505050905090810190601f168015610d395780820380516001836020036101000a031916815260200191505b509250505060405180910390f35b348015610d5357600080fd5b5061018360048036036080811015610d6a57600080fd5b81359190810190604081016020820135640100000000811115610d8c57600080fd5b820183602082011115610d9e57600080fd5b80359060200191846001830284011164010000000083111715610dc057600080fd5b91908080601f0160208091040260200160405190810160405280939291908181526020018383808284376000920191909152509295949360208101935035915050640100000000811115610e1357600080fd5b820183602082011115610e2557600080fd5b80359060200191846001830284011164010000000083111715610e4757600080fd5b91908080601f0160208091040260200160405190810160405280939291908181526020018383808284376000920191909152509295505091359250611ee7915050565b348015610e9657600080fd5b50610183600480360360c0811015610ead57600080fd5b81359190810190604081016020820135640100000000811115610ecf57600080fd5b820183602082011115610ee157600080fd5b80359060200191846001830284011164010000000083111715610f0357600080fd5b91908080601f0160208091040260200160405190810160405280939291908181526020018383808284376000920191909152509295949360208101935035915050640100000000811115610f5657600080fd5b820183602082011115610f6857600080fd5b80359060200191846001830284011164010000000083111715610f8a57600080fd5b91908080601f0160208091040260200160405190810160405280939291908181526020018383808284376000920191909152509295949360208101935035915050640100000000811115610fdd57600080fd5b820183602082011115610fef57600080fd5b8035906020019184600183028401116401000000008311171561101157600080fd5b91908080601f0160208091040260200160405190810160405280939291908181526020018383808284376000920191909152509295505082359350505060200135612056565b6000828152600160209081526040909120825161107c926003909201918401906122f5565b506000828152600160209081526040808320600401805473ffffffffffffffffffffffffffffffffffffffff191633908117909155815180840182905282815285519281019290925284517f50f74ca45caac8020b8d891bd13ea5a2d79564986ee6a839f0d914896388322d94869492939283926060840192918701918190849084905b83811015611118578181015183820152602001611100565b50505050905090810190601f1680156111455780820380516001836020036101000a031916815260200191505b50935050505060405180910390a15050565b6000838152602081815260408220600601805460018101808355918452928290208551919361118c93910191908601906122f5565b5050600083815260208181526040822060070180546001810180835591845292829020845191936111c393910191908501906122f5565b50507fce15fffe5acf0a2dabbecf2f81c67e239f03a26fb82c9a12f5335a542ea285af8282604051808060200180602001838103835285818151815260200191508051906020019080838360005b83811015611229578181015183820152602001611211565b50505050905090810190601f1680156112565780820380516001836020036101000a031916815260200191505b50838103825284518152845160209182019186019080838360005b83811015611289578181015183820152602001611271565b50505050905090810190601f1680156112b65780820380516001836020036101000a031916815260200191505b5094505050505060405180910390a1505050565b60008281526020818152604090912082516112ed926003909201918401906122f5565b50600082815260208181526040808320600401805473ffffffffffffffffffffffffffffffffffffffff191633908117909155815180840182905282815285519281019290925284517f50f74ca45caac8020b8d891bd13ea5a2d79564986ee6a839f0d914896388322d948694929392839260608401929187019181908490849083811015611118578181015183820152602001611100565b600081600114156113a957506000828152602081905260409020600501546113bd565b506000828152600160205260409020600501545b92915050565b60008481526020818152604090912084516113e0928601906122f5565b506000848152602081815260409091208351611404926001909201918501906122f5565b506000848152602081815260409091208251611428926002909201918401906122f5565b507f165040bdbacef6df8fe21f051768c2880af7e818c00a686feb9dad36f52f62f483838360405180806020018060200180602001848103845287818151815260200191508051906020019080838360005b8381101561149257818101518382015260200161147a565b50505050905090810190601f1680156114bf5780820380516001836020036101000a031916815260200191505b50848103835286518152865160209182019188019080838360005b838110156114f25781810151838201526020016114da565b50505050905090810190601f16801561151f5780820380516001836020036101000a031916815260200191505b50848103825285518152855160209182019187019080838360005b8381101561155257818101518382015260200161153a565b50505050905090810190601f16801561157f5780820380516001836020036101000a031916815260200191505b50965050505050505060405180910390a150505050565b600081600114156115d05760008481526020819052604090206005018054849081106115be57fe5b906000526020600020015490506115ed565b60008481526001602052604090206005018054849081106115be57fe5b9392505050565b6000602081815291815260409081902080548251601f6002600019610100600186161502019093169290920491820185900485028101850190935280835290928391908301828280156116885780601f1061165d57610100808354040283529160200191611688565b820191906000526020600020905b81548152906001019060200180831161166b57829003601f168201915b505050505090806001018054600181600116156101000203166002900480601f0160208091040260200160405190810160405280929190818152602001828054600181600116156101000203166002900480156117265780601f106116fb57610100808354040283529160200191611726565b820191906000526020600020905b81548152906001019060200180831161170957829003601f168201915b50505060028085018054604080516020601f60001961010060018716150201909416959095049283018590048502810185019091528181529596959450909250908301828280156117b85780601f1061178d576101008083540402835291602001916117b8565b820191906000526020600020905b81548152906001019060200180831161179b57829003601f168201915b5050505060038301805460408051602060026001851615610100026000190190941693909304601f81018490048402820184019092528181529495949350908301828280156118485780601f1061181d57610100808354040283529160200191611848565b820191906000526020600020905b81548152906001019060200180831161182b57829003601f168201915b5050506004909301549192505073ffffffffffffffffffffffffffffffffffffffff1685565b60009081526020819052604090206006015490565b600260208181526000928352604092839020805484516001821615610100026000190190911693909304601f81018390048302840183019094528383529283918301828280156119145780601f106118e957610100808354040283529160200191611914565b820191906000526020600020905b8154815290600101906020018083116118f757829003601f168201915b505050505090806001018054600181600116156101000203166002900480601f0160208091040260200160405190810160405280929190818152602001828054600181600116156101000203166002900480156119b25780601f10611987576101008083540402835291602001916119b2565b820191906000526020600020905b81548152906001019060200180831161199557829003601f168201915b50505060028085018054604080516020601f6000196101006001871615020190941695909504928301859004850281018501909152818152959695945090925090830182828015611a445780601f10611a1957610100808354040283529160200191611a44565b820191906000526020600020905b815481529060010190602001808311611a2757829003601f168201915b5050505060038301805460408051602060026001851615610100026000190190941693909304601f8101849004840282018401909252818152949594935090830182828015611ad45780601f10611aa957610100808354040283529160200191611ad4565b820191906000526020600020905b815481529060010190602001808311611ab757829003601f168201915b5050505060048301805460408051602060026001851615610100026000190190941693909304601f8101849004840282018401909252818152949594935090830182828015611b645780601f10611b3957610100808354040283529160200191611b64565b820191906000526020600020905b815481529060010190602001808311611b4757829003601f168201915b5050505060058301805460408051602060026001851615610100026000190190941693909304601f8101849004840282018401909252818152949594935090830182828015611bf45780601f10611bc957610100808354040283529160200191611bf4565b820191906000526020600020905b815481529060010190602001808311611bd757829003601f168201915b5050505060068301805460408051602060026001851615610100026000190190941693909304601f8101849004840282018401909252818152949594935090830182828015611c845780601f10611c5957610100808354040283529160200191611c84565b820191906000526020600020905b815481529060010190602001808311611c6757829003601f168201915b5050505050905087565b60016020818152600092835260409283902080548451600294821615610100026000190190911693909304601f8101839004830284018301909452838352928391830182828015611d205780601f10611cf557610100808354040283529160200191611d20565b820191906000526020600020905b815481529060010190602001808311611d0357829003601f168201915b505050505090806001018054600181600116156101000203166002900480601f016020809104026020016040519081016040528092919081815260200182805460018160011615610100020316600290048015611dbe5780601f10611d9357610100808354040283529160200191611dbe565b820191906000526020600020905b815481529060010190602001808311611da157829003601f168201915b505050506002838101546003850180546040805160206001841615610100026000190190931695909504601f8101839004830286018301909152808552959692959294509091908301828280156118485780601f1061181d57610100808354040283529160200191611848565b600082815260208190526040902060060180546060919083908110611e4c57fe5b600091825260209182902001805460408051601f6002600019610100600187161502019094169390930492830185900485028101850190915281815292830182828015611eda5780601f10611eaf57610100808354040283529160200191611eda565b820191906000526020600020905b815481529060010190602001808311611ebd57829003601f168201915b5050505050905092915050565b60008481526001602090815260409091208451611f06928601906122f5565b5060008481526001602081815260409092208451611f2c939190920191908501906122f5565b508060016000868152602001908152602001600020600201819055507ffa348a37b2c95bb552cf01202b5d7079946c5b0a69a2a2d5f7e55501b4ff89c6838383604051808060200180602001848152602001838103835286818151815260200191508051906020019080838360005b83811015611fb3578181015183820152602001611f9b565b50505050905090810190601f168015611fe05780820380516001836020036101000a031916815260200191505b50838103825285518152855160209182019187019080838360005b83811015612013578181015183820152602001611ffb565b50505050905090810190601f1680156120405780820380516001836020036101000a031916815260200191505b509550505050505060405180910390a150505050565b60008681526002602090815260409091208651612075928801906122f5565b506000868152600260209081526040909120855161209b926001909201918701906122f5565b50600086815260026020818152604090922085516120c1939190920191908601906122f5565b506000828152602081815260408083206005808201805460018181018355918752858720018c9055868652808552838620820180548083018255908752858720018c90558b8652600294859052929094209082018054612137959290920193909261010090831615026000190190911604612373565b5060008181526001602081815260408084208a8552600292839052932083546121759460069092019391929181161561010002600019011604612373565b507f5e3bcdca6985aca4c2f214303c4427d409e4c631b5a08ef149bc53a500ffe0b4858585858560405180806020018060200180602001868152602001858152602001848103845289818151815260200191508051906020019080838360005b838110156121ed5781810151838201526020016121d5565b50505050905090810190601f16801561221a5780820380516001836020036101000a031916815260200191505b5084810383528851815288516020918201918a019080838360005b8381101561224d578181015183820152602001612235565b50505050905090810190601f16801561227a5780820380516001836020036101000a031916815260200191505b50848103825287518152875160209182019189019080838360005b838110156122ad578181015183820152602001612295565b50505050905090810190601f1680156122da5780820380516001836020036101000a031916815260200191505b509850505050505050505060405180910390a1505050505050565b828054600181600116156101000203166002900490600052602060002090601f016020900481019282601f1061233657805160ff1916838001178555612363565b82800160010185558215612363579182015b82811115612363578251825591602001919060010190612348565b5061236f9291506123e8565b5090565b828054600181600116156101000203166002900490600052602060002090601f016020900481019282601f106123ac5780548555612363565b8280016001018555821561236357600052602060002091601f016020900482015b828111156123635782548255916001019190600101906123cd565b61240291905b8082111561236f57600081556001016123ee565b9056fea165627a7a72305820d6baab38e30449d7c1c61ce83486077100c49195611cb3fe3f7651e9ed24ba1e0029",
  "source": "pragma solidity ^0.5.0;\r\n\r\ncontract DrugCounterfiet\r\n{\r\n    struct Manufacturer{\r\n        string verificationId;\r\n        string name;\r\n\t\tstring location;\r\n\t\tstring password;\r\n\t\taddress manAddress;\r\n        uint[] ongoingOrders;\r\n        string[] drugNames;\r\n        string[] prices;\r\n    }\r\n\t\r\n\tstruct Seller{\r\n        string name;\r\n\t\tstring location;\r\n\t\tuint manId;\r\n\t\tstring password;\r\n\t\taddress sellAddress;\r\n        uint[] ongoingOrders;\r\n    }\r\n    \r\n     struct Order{\r\n        string drugName;\r\n        string quantity;\r\n        string orderStatus;\r\n        string orderManuDate;\r\n        string orderDelvDate;\r\n        string manName;\r\n        string sellName;\r\n    }\r\n\r\n    mapping(uint => Manufacturer) public manufacturers;\r\n\tmapping(uint => Seller) public sellers;\r\n\tmapping(uint => Order) public orders;\r\n\t\r\n    event ManufacturerCreated(\r\n        string verificationId,\r\n        string name,\r\n        string location\r\n    );\r\n\t\r\n\tevent SellerCreated(\r\n        string name,\r\n        string location,\r\n\t\tuint manId\r\n    );\r\n\r\n    event OrderCreated(\r\n        string name,\r\n        string quantity,\r\n        string status,\r\n        uint manId,\r\n        uint sellId\r\n    );\r\n    \r\n    event Registered(\r\n        string password,\r\n\t\taddress manAddress\r\n    );\r\n\r\n    event DrugCreated(\r\n        string drugName,\r\n\t\tstring price\r\n    );\r\n\r\n    function createManufacturer(uint _regid, string memory _verificationId, string memory _name, string memory _location) public{\r\n        manufacturers[_regid].verificationId=_verificationId;\r\n        manufacturers[_regid].name=_name;\r\n        manufacturers[_regid].location=_location;\r\n        emit ManufacturerCreated(_verificationId,_name,_location);\r\n\r\n    }\r\n\r\n    function viewOngOrdersLength(uint _regid, uint _type) public view returns (uint){\r\n        if(_type==1) {\r\n            return manufacturers[_regid].ongoingOrders.length;\r\n        }\r\n        else {\r\n            return sellers[_regid].ongoingOrders.length;\r\n        }\r\n    }\r\n\r\n    function viewOngOrders(uint _regid, uint index, uint _type) public view returns (uint){\r\n        if(_type==1) {\r\n            return manufacturers[_regid].ongoingOrders[index];\r\n        }\r\n        else {\r\n            return sellers[_regid].ongoingOrders[index];\r\n        }\r\n    }\r\n\r\n    function createOrder(uint _regid, string memory _name, string memory _quant, string memory _status, uint _manId, uint _sellId) public{\r\n        orders[_regid].drugName=_name;\r\n        orders[_regid].quantity=_quant;\r\n        orders[_regid].orderStatus=_status;\r\n        manufacturers[_manId].ongoingOrders.push(_regid);\r\n        sellers[_sellId].ongoingOrders.push(_regid);\r\n        orders[_regid].manName=manufacturers[_manId].name;\r\n        orders[_regid].sellName=sellers[_sellId].name;\r\n        emit OrderCreated(_name,_quant,_status,_manId,_sellId);\r\n\r\n    }\r\n\t\r\n\tfunction createSeller(uint _regid, string memory _name, string memory _location, uint _manId) public{\r\n        sellers[_regid].name=_name;\r\n        sellers[_regid].location=_location;\r\n        sellers[_regid].manId=_manId;\r\n        emit SellerCreated(_name,_location,_manId);\r\n\r\n    }\r\n\r\n    function registerMan(uint _regid, string memory _password) public{\r\n        manufacturers[_regid].password=_password;\r\n        manufacturers[_regid].manAddress=msg.sender;\r\n        emit Registered(_password,msg.sender);\r\n    }\r\n\r\n    function registerSeller(uint _regid, string memory _password) public{\r\n        sellers[_regid].password=_password;\r\n        sellers[_regid].sellAddress=msg.sender;\r\n        emit Registered(_password,msg.sender);\r\n    }\r\n\r\n    function addDrugs(uint _regid, string memory _drug, string memory _price) public{\r\n        manufacturers[_regid].drugNames.push(_drug);\r\n        manufacturers[_regid].prices.push(_price);\r\n        emit DrugCreated(_drug,_price);\r\n    }\r\n\r\n    function viewDrugsLength(uint _regid) public view returns (uint){\r\n        return manufacturers[_regid].drugNames.length;\r\n    }\r\n\r\n    function viewDrugs(uint _regid, uint index) public view returns (string memory){\r\n        return manufacturers[_regid].drugNames[index];\r\n    }\r\n\r\n}",
  "sourcePath": "D:/PSG Semester 7/Project Work 1/Drug_Counterfiet/contracts/DrugCounterfiet.sol",
  "compiler": {
    "name": "solc",
    "version": "0.5.0+commit.1d4f565a.Emscripten.clang"
  },
  "schemaVersion": "3.0.1",
  "updatedAt": "2021-10-29T03:17:16.491Z",
  "devdoc": {
    "methods": {}
  },
  "userdoc": {
    "methods": {}
  }
}