{
  "contractName": "DrugCounterfiet",
  "abi": [
    {
      "constant": true,
      "inputs": [
        {
          "name": "",
          "type": "uint256"
        }
      ],
      "name": "manufacturers",
      "outputs": [
        {
          "name": "verificationId",
          "type": "string"
        },
        {
          "name": "name",
          "type": "string"
        },
        {
          "name": "location",
          "type": "string"
        },
        {
          "name": "password",
          "type": "string"
        },
        {
          "name": "manAddress",
          "type": "address"
        }
      ],
      "payable": false,
      "stateMutability": "view",
      "type": "function",
      "signature": "0x90175af1"
    },
    {
      "constant": true,
      "inputs": [
        {
          "name": "",
          "type": "uint256"
        }
      ],
      "name": "orders",
      "outputs": [
        {
          "name": "drugName",
          "type": "string"
        },
        {
          "name": "quantity",
          "type": "string"
        },
        {
          "name": "orderStatus",
          "type": "string"
        },
        {
          "name": "orderManuDate",
          "type": "string"
        },
        {
          "name": "orderDelvDate",
          "type": "string"
        },
        {
          "name": "manName",
          "type": "string"
        },
        {
          "name": "sellName",
          "type": "string"
        }
      ],
      "payable": false,
      "stateMutability": "view",
      "type": "function",
      "signature": "0xa85c38ef"
    },
    {
      "constant": true,
      "inputs": [
        {
          "name": "",
          "type": "uint256"
        }
      ],
      "name": "sellers",
      "outputs": [
        {
          "name": "name",
          "type": "string"
        },
        {
          "name": "location",
          "type": "string"
        },
        {
          "name": "manId",
          "type": "uint256"
        },
        {
          "name": "password",
          "type": "string"
        },
        {
          "name": "sellAddress",
          "type": "address"
        }
      ],
      "payable": false,
      "stateMutability": "view",
      "type": "function",
      "signature": "0xcee26ed5"
    },
    {
      "anonymous": false,
      "inputs": [
        {
          "indexed": false,
          "name": "verificationId",
          "type": "string"
        },
        {
          "indexed": false,
          "name": "name",
          "type": "string"
        },
        {
          "indexed": false,
          "name": "location",
          "type": "string"
        }
      ],
      "name": "ManufacturerCreated",
      "type": "event",
      "signature": "0x165040bdbacef6df8fe21f051768c2880af7e818c00a686feb9dad36f52f62f4"
    },
    {
      "anonymous": false,
      "inputs": [
        {
          "indexed": false,
          "name": "name",
          "type": "string"
        },
        {
          "indexed": false,
          "name": "location",
          "type": "string"
        },
        {
          "indexed": false,
          "name": "manId",
          "type": "uint256"
        }
      ],
      "name": "SellerCreated",
      "type": "event",
      "signature": "0xfa348a37b2c95bb552cf01202b5d7079946c5b0a69a2a2d5f7e55501b4ff89c6"
    },
    {
      "anonymous": false,
      "inputs": [
        {
          "indexed": false,
          "name": "name",
          "type": "string"
        },
        {
          "indexed": false,
          "name": "quantity",
          "type": "string"
        },
        {
          "indexed": false,
          "name": "status",
          "type": "string"
        },
        {
          "indexed": false,
          "name": "manId",
          "type": "uint256"
        },
        {
          "indexed": false,
          "name": "sellId",
          "type": "uint256"
        }
      ],
      "name": "OrderCreated",
      "type": "event",
      "signature": "0x5e3bcdca6985aca4c2f214303c4427d409e4c631b5a08ef149bc53a500ffe0b4"
    },
    {
      "anonymous": false,
      "inputs": [
        {
          "indexed": false,
          "name": "password",
          "type": "string"
        },
        {
          "indexed": false,
          "name": "manAddress",
          "type": "address"
        }
      ],
      "name": "Registered",
      "type": "event",
      "signature": "0x50f74ca45caac8020b8d891bd13ea5a2d79564986ee6a839f0d914896388322d"
    },
    {
      "anonymous": false,
      "inputs": [
        {
          "indexed": false,
          "name": "drugName",
          "type": "string"
        },
        {
          "indexed": false,
          "name": "price",
          "type": "string"
        }
      ],
      "name": "DrugCreated",
      "type": "event",
      "signature": "0xce15fffe5acf0a2dabbecf2f81c67e239f03a26fb82c9a12f5335a542ea285af"
    },
    {
      "anonymous": false,
      "inputs": [
        {
          "indexed": false,
          "name": "date",
          "type": "string"
        },
        {
          "indexed": false,
          "name": "status",
          "type": "string"
        }
      ],
      "name": "orderUpdate",
      "type": "event",
      "signature": "0x9b5e0fbfcea0e11a4c7f9b7ae3cb0a96f562ccff14db3a2cf046da514c2bd385"
    },
    {
      "constant": false,
      "inputs": [
        {
          "name": "_regid",
          "type": "uint256"
        },
        {
          "name": "_verificationId",
          "type": "string"
        },
        {
          "name": "_name",
          "type": "string"
        },
        {
          "name": "_location",
          "type": "string"
        }
      ],
      "name": "createManufacturer",
      "outputs": [],
      "payable": false,
      "stateMutability": "nonpayable",
      "type": "function",
      "signature": "0x5f3a6acf"
    },
    {
      "constant": true,
      "inputs": [
        {
          "name": "_regid",
          "type": "uint256"
        },
        {
          "name": "_type",
          "type": "uint256"
        }
      ],
      "name": "viewOngOrdersLength",
      "outputs": [
        {
          "name": "",
          "type": "uint256"
        }
      ],
      "payable": false,
      "stateMutability": "view",
      "type": "function",
      "signature": "0x54c4128b"
    },
    {
      "constant": true,
      "inputs": [
        {
          "name": "_regid",
          "type": "uint256"
        },
        {
          "name": "index",
          "type": "uint256"
        },
        {
          "name": "_type",
          "type": "uint256"
        }
      ],
      "name": "viewOngOrders",
      "outputs": [
        {
          "name": "",
          "type": "uint256"
        }
      ],
      "payable": false,
      "stateMutability": "view",
      "type": "function",
      "signature": "0x6bce2689"
    },
    {
      "constant": false,
      "inputs": [
        {
          "name": "_regid",
          "type": "uint256"
        },
        {
          "name": "_name",
          "type": "string"
        },
        {
          "name": "_quant",
          "type": "string"
        },
        {
          "name": "_status",
          "type": "string"
        },
        {
          "name": "_manId",
          "type": "uint256"
        },
        {
          "name": "_sellId",
          "type": "uint256"
        }
      ],
      "name": "createOrder",
      "outputs": [],
      "payable": false,
      "stateMutability": "nonpayable",
      "type": "function",
      "signature": "0xecf23b32"
    },
    {
      "constant": false,
      "inputs": [
        {
          "name": "_regid",
          "type": "uint256"
        },
        {
          "name": "_name",
          "type": "string"
        },
        {
          "name": "_location",
          "type": "string"
        },
        {
          "name": "_manId",
          "type": "uint256"
        }
      ],
      "name": "createSeller",
      "outputs": [],
      "payable": false,
      "stateMutability": "nonpayable",
      "type": "function",
      "signature": "0xe80fd600"
    },
    {
      "constant": false,
      "inputs": [
        {
          "name": "_regid",
          "type": "uint256"
        },
        {
          "name": "_password",
          "type": "string"
        }
      ],
      "name": "registerMan",
      "outputs": [],
      "payable": false,
      "stateMutability": "nonpayable",
      "type": "function",
      "signature": "0x276dde9d"
    },
    {
      "constant": false,
      "inputs": [
        {
          "name": "_regid",
          "type": "uint256"
        },
        {
          "name": "_password",
          "type": "string"
        }
      ],
      "name": "registerSeller",
      "outputs": [],
      "payable": false,
      "stateMutability": "nonpayable",
      "type": "function",
      "signature": "0x13a48fd0"
    },
    {
      "constant": false,
      "inputs": [
        {
          "name": "_regid",
          "type": "uint256"
        },
        {
          "name": "_drug",
          "type": "string"
        },
        {
          "name": "_price",
          "type": "string"
        }
      ],
      "name": "addDrugs",
      "outputs": [],
      "payable": false,
      "stateMutability": "nonpayable",
      "type": "function",
      "signature": "0x25f74376"
    },
    {
      "constant": true,
      "inputs": [
        {
          "name": "_regid",
          "type": "uint256"
        }
      ],
      "name": "viewDrugsLength",
      "outputs": [
        {
          "name": "",
          "type": "uint256"
        }
      ],
      "payable": false,
      "stateMutability": "view",
      "type": "function",
      "signature": "0xa7458dc1"
    },
    {
      "constant": true,
      "inputs": [
        {
          "name": "_regid",
          "type": "uint256"
        },
        {
          "name": "index",
          "type": "uint256"
        }
      ],
      "name": "viewDrugs",
      "outputs": [
        {
          "name": "",
          "type": "string"
        }
      ],
      "payable": false,
      "stateMutability": "view",
      "type": "function",
      "signature": "0xd0f6e955"
    },
    {
      "constant": true,
      "inputs": [
        {
          "name": "_regid",
          "type": "uint256"
        },
        {
          "name": "index",
          "type": "uint256"
        }
      ],
      "name": "viewPrice",
      "outputs": [
        {
          "name": "",
          "type": "string"
        }
      ],
      "payable": false,
      "stateMutability": "view",
      "type": "function",
      "signature": "0x3c087d8e"
    },
    {
      "constant": false,
      "inputs": [
        {
          "name": "_regid",
          "type": "uint256"
        },
        {
          "name": "_date",
          "type": "string"
        },
        {
          "name": "_status",
          "type": "string"
        }
      ],
      "name": "acceptOrder",
      "outputs": [],
      "payable": false,
      "stateMutability": "nonpayable",
      "type": "function",
      "signature": "0xd97fa560"
    },
    {
      "constant": false,
      "inputs": [
        {
          "name": "_regid",
          "type": "uint256"
        },
        {
          "name": "_status",
          "type": "string"
        },
        {
          "name": "_id",
          "type": "uint256"
        },
        {
          "name": "_manId",
          "type": "uint256"
        }
      ],
      "name": "rejectOrder",
      "outputs": [],
      "payable": false,
      "stateMutability": "nonpayable",
      "type": "function",
      "signature": "0x0aa076f8"
    },
    {
      "constant": false,
      "inputs": [
        {
          "name": "_regId",
          "type": "uint256"
        },
        {
          "name": "_id",
          "type": "uint256"
        },
        {
          "name": "_type",
          "type": "uint256"
        }
      ],
      "name": "removeOrder",
      "outputs": [],
      "payable": false,
      "stateMutability": "nonpayable",
      "type": "function",
      "signature": "0x1ccd7f23"
    },
    {
      "constant": false,
      "inputs": [
        {
          "name": "_id",
          "type": "uint256"
        },
        {
          "name": "_regid",
          "type": "uint256"
        },
        {
          "name": "_date",
          "type": "string"
        },
        {
          "name": "_status",
          "type": "string"
        },
        {
          "name": "_sellId",
          "type": "uint256"
        }
      ],
      "name": "orderDelivered",
      "outputs": [],
      "payable": false,
      "stateMutability": "nonpayable",
      "type": "function",
      "signature": "0x80fa5e9a"
    }
  ],
  "bytecode": "0x608060405234801561001057600080fd5b50612ec8806100206000396000f3fe6080604052600436106100fb5763ffffffff7c01000000000000000000000000000000000000000000000000000000006000350416630aa076f8811461010057806313a48fd0146101c15780631ccd7f231461027b57806325f74376146102b1578063276dde9d146103f25780633c087d8e146104ac57806354c4128b146105515780635f3a6acf146105935780636bce26891461075b57806380fa5e9a1461079157806390175af1146108d9578063a7458dc114610ae0578063a85c38ef14610b0a578063cee26ed514610e13578063d0f6e95514610fbb578063d97fa56014610feb578063e80fd6001461112c578063ecf23b321461126f575b600080fd5b34801561010c57600080fd5b506101bf6004803603608081101561012357600080fd5b8135919081019060408101602082013564010000000081111561014557600080fd5b82018360208201111561015757600080fd5b8035906020019184600183028401116401000000008311171561017957600080fd5b91908080601f016020809104026020016040519081016040528093929190818152602001838380828437600092019190915250929550508235935050506020013561143c565b005b3480156101cd57600080fd5b506101bf600480360360408110156101e457600080fd5b8135919081019060408101602082013564010000000081111561020657600080fd5b82018360208201111561021857600080fd5b8035906020019184600183028401116401000000008311171561023a57600080fd5b91908080601f01602080910402602001604051908101604052809392919081815260200183838082843760009201919091525092955061169b945050505050565b34801561028757600080fd5b506101bf6004803603606081101561029e57600080fd5b508035906020810135906040013561179b565b3480156102bd57600080fd5b506101bf600480360360608110156102d457600080fd5b813591908101906040810160208201356401000000008111156102f657600080fd5b82018360208201111561030857600080fd5b8035906020019184600183028401116401000000008311171561032a57600080fd5b91908080601f016020809104026020016040519081016040528093929190818152602001838380828437600092019190915250929594936020810193503591505064010000000081111561037d57600080fd5b82018360208201111561038f57600080fd5b803590602001918460018302840111640100000000831117156103b157600080fd5b91908080601f016020809104026020016040519081016040528093929190818152602001838380828437600092019190915250929550611919945050505050565b3480156103fe57600080fd5b506101bf6004803603604081101561041557600080fd5b8135919081019060408101602082013564010000000081111561043757600080fd5b82018360208201111561044957600080fd5b8035906020019184600183028401116401000000008311171561046b57600080fd5b91908080601f016020809104026020016040519081016040528093929190818152602001838380828437600092019190915250929550611a8c945050505050565b3480156104b857600080fd5b506104dc600480360360408110156104cf57600080fd5b5080359060200135611b48565b6040805160208082528351818301528351919283929083019185019080838360005b838110156105165781810151838201526020016104fe565b50505050905090810190601f1680156105435780820380516001836020036101000a031916815260200191505b509250505060405180910390f35b34801561055d57600080fd5b506105816004803603604081101561057457600080fd5b5080359060200135611c05565b60408051918252519081900360200190f35b34801561059f57600080fd5b506101bf600480360360808110156105b657600080fd5b813591908101906040810160208201356401000000008111156105d857600080fd5b8201836020820111156105ea57600080fd5b8035906020019184600183028401116401000000008311171561060c57600080fd5b91908080601f016020809104026020016040519081016040528093929190818152602001838380828437600092019190915250929594936020810193503591505064010000000081111561065f57600080fd5b82018360208201111561067157600080fd5b8035906020019184600183028401116401000000008311171561069357600080fd5b91908080601f01602080910402602001604051908101604052809392919081815260200183838082843760009201919091525092959493602081019350359150506401000000008111156106e657600080fd5b8201836020820111156106f857600080fd5b8035906020019184600183028401116401000000008311171561071a57600080fd5b91908080601f016020809104026020016040519081016040528093929190818152602001838380828437600092019190915250929550611c40945050505050565b34801561076757600080fd5b506105816004803603606081101561077e57600080fd5b5080359060208101359060400135611e13565b34801561079d57600080fd5b506101bf600480360360a08110156107b457600080fd5b8135916020810135918101906060810160408201356401000000008111156107db57600080fd5b8201836020820111156107ed57600080fd5b8035906020019184600183028401116401000000008311171561080f57600080fd5b91908080601f016020809104026020016040519081016040528093929190818152602001838380828437600092019190915250929594936020810193503591505064010000000081111561086257600080fd5b82018360208201111561087457600080fd5b8035906020019184600183028401116401000000008311171561089657600080fd5b91908080601f0160208091040260200160405190810160405280939291908181526020018383808284376000920191909152509295505091359250611e71915050565b3480156108e557600080fd5b50610903600480360360208110156108fc57600080fd5b5035612069565b60405180806020018060200180602001806020018673ffffffffffffffffffffffffffffffffffffffff1673ffffffffffffffffffffffffffffffffffffffff16815260200185810385528a818151815260200191508051906020019080838360005b8381101561097e578181015183820152602001610966565b50505050905090810190601f1680156109ab5780820380516001836020036101000a031916815260200191505b5085810384528951815289516020918201918b019080838360005b838110156109de5781810151838201526020016109c6565b50505050905090810190601f168015610a0b5780820380516001836020036101000a031916815260200191505b5085810383528851815288516020918201918a019080838360005b83811015610a3e578181015183820152602001610a26565b50505050905090810190601f168015610a6b5780820380516001836020036101000a031916815260200191505b50858103825287518152875160209182019189019080838360005b83811015610a9e578181015183820152602001610a86565b50505050905090810190601f168015610acb5780820380516001836020036101000a031916815260200191505b50995050505050505050505060405180910390f35b348015610aec57600080fd5b5061058160048036036020811015610b0357600080fd5b50356122e3565b348015610b1657600080fd5b50610b3460048036036020811015610b2d57600080fd5b50356122f8565b604051808060200180602001806020018060200180602001806020018060200188810388528f818151815260200191508051906020019080838360005b83811015610b89578181015183820152602001610b71565b50505050905090810190601f168015610bb65780820380516001836020036101000a031916815260200191505b5088810387528e818151815260200191508051906020019080838360005b83811015610bec578181015183820152602001610bd4565b50505050905090810190601f168015610c195780820380516001836020036101000a031916815260200191505b5088810386528d5181528d516020918201918f019080838360005b83811015610c4c578181015183820152602001610c34565b50505050905090810190601f168015610c795780820380516001836020036101000a031916815260200191505b5088810385528c5181528c516020918201918e019080838360005b83811015610cac578181015183820152602001610c94565b50505050905090810190601f168015610cd95780820380516001836020036101000a031916815260200191505b5088810384528b5181528b516020918201918d019080838360005b83811015610d0c578181015183820152602001610cf4565b50505050905090810190601f168015610d395780820380516001836020036101000a031916815260200191505b5088810383528a5181528a516020918201918c019080838360005b83811015610d6c578181015183820152602001610d54565b50505050905090810190601f168015610d995780820380516001836020036101000a031916815260200191505b5088810382528951815289516020918201918b019080838360005b83811015610dcc578181015183820152602001610db4565b50505050905090810190601f168015610df95780820380516001836020036101000a031916815260200191505b509e50505050505050505050505050505060405180910390f35b348015610e1f57600080fd5b50610e3d60048036036020811015610e3657600080fd5b5035612703565b604051808060200180602001868152602001806020018573ffffffffffffffffffffffffffffffffffffffff1673ffffffffffffffffffffffffffffffffffffffff168152602001848103845289818151815260200191508051906020019080838360005b83811015610eba578181015183820152602001610ea2565b50505050905090810190601f168015610ee75780820380516001836020036101000a031916815260200191505b5084810383528851815288516020918201918a019080838360005b83811015610f1a578181015183820152602001610f02565b50505050905090810190601f168015610f475780820380516001836020036101000a031916815260200191505b50848103825286518152865160209182019188019080838360005b83811015610f7a578181015183820152602001610f62565b50505050905090810190601f168015610fa75780820380516001836020036101000a031916815260200191505b509850505050505050505060405180910390f35b348015610fc757600080fd5b506104dc60048036036040811015610fde57600080fd5b50803590602001356128a0565b348015610ff757600080fd5b506101bf6004803603606081101561100e57600080fd5b8135919081019060408101602082013564010000000081111561103057600080fd5b82018360208201111561104257600080fd5b8035906020019184600183028401116401000000008311171561106457600080fd5b91908080601f01602080910402602001604051908101604052809392919081815260200183838082843760009201919091525092959493602081019350359150506401000000008111156110b757600080fd5b8201836020820111156110c957600080fd5b803590602001918460018302840111640100000000831117156110eb57600080fd5b91908080601f0160208091040260200160405190810160405280939291908181526020018383808284376000920191909152509295506128c1945050505050565b34801561113857600080fd5b506101bf6004803603608081101561114f57600080fd5b8135919081019060408101602082013564010000000081111561117157600080fd5b82018360208201111561118357600080fd5b803590602001918460018302840111640100000000831117156111a557600080fd5b91908080601f01602080910402602001604051908101604052809392919081815260200183838082843760009201919091525092959493602081019350359150506401000000008111156111f857600080fd5b82018360208201111561120a57600080fd5b8035906020019184600183028401116401000000008311171561122c57600080fd5b91908080601f016020809104026020016040519081016040528093929190818152602001838380828437600092019190915250929550509135925061295e915050565b34801561127b57600080fd5b506101bf600480360360c081101561129257600080fd5b813591908101906040810160208201356401000000008111156112b457600080fd5b8201836020820111156112c657600080fd5b803590602001918460018302840111640100000000831117156112e857600080fd5b91908080601f016020809104026020016040519081016040528093929190818152602001838380828437600092019190915250929594936020810193503591505064010000000081111561133b57600080fd5b82018360208201111561134d57600080fd5b8035906020019184600183028401116401000000008311171561136f57600080fd5b91908080601f01602080910402602001604051908101604052809392919081815260200183838082843760009201919091525092959493602081019350359150506401000000008111156113c257600080fd5b8201836020820111156113d457600080fd5b803590602001918460018302840111640100000000831117156113f657600080fd5b91908080601f0160208091040260200160405190810160405280939291908181526020018383808284376000920191909152509295505082359350505060200135612acd565b6000848152600260208181526040909220855161146193919092019190860190612d6c565b50600080516020612e7d83398151915283604051808060200180602001838103835260078152602001807f4e6f204461746500000000000000000000000000000000000000000000000000815250602001838103825284818151815260200191508051906020019080838360005b838110156114e75781810151838201526020016114cf565b50505050905090810190601f1680156115145780820380516001836020036101000a031916815260200191505b50935050505060405180910390a1815b600082815260208190526040902060050154600019018110156115a257600082815260208190526040902060050180546001830190811061156157fe5b90600052602060002001546000808481526020019081526020016000206005018281548110151561158e57fe5b600091825260209091200155600101611524565b50600081815260208190526040902060050180548015156115bf57fe5b60019003818190600052602060002001600090559055600080516020612e7d83398151915283604051808060200180602001838103835260078152602001807f4e6f204461746500000000000000000000000000000000000000000000000000815250602001838103825284818151815260200191508051906020019080838360005b8381101561165a578181015183820152602001611642565b50505050905090810190601f1680156116875780820380516001836020036101000a031916815260200191505b50935050505060405180910390a150505050565b600082815260016020908152604090912082516116c092600390920191840190612d6c565b506000828152600160209081526040808320600401805473ffffffffffffffffffffffffffffffffffffffff191633908117909155815180840182905282815285519281019290925284517f50f74ca45caac8020b8d891bd13ea5a2d79564986ee6a839f0d914896388322d94869492939283926060840192918701918190849084905b8381101561175c578181015183820152602001611744565b50505050905090810190601f1680156117895780820380516001836020036101000a031916815260200191505b50935050505060405180910390a15050565b806001141561185c57815b600084815260208190526040902060050154600019018110156118245760008481526020819052604090206005018054600183019081106117e357fe5b90600052602060002001546000808681526020019081526020016000206005018281548110151561181057fe5b6000918252602090912001556001016117a6565b506000838152602081905260409020600501805480151561184157fe5b60019003818190600052602060002001600090559055611914565b815b600084815260016020526040902060050154600019018110156118e057600084815260016020819052604090912060050180549091830190811061189e57fe5b906000526020600020015460016000868152602001908152602001600020600501828154811015156118cc57fe5b60009182526020909120015560010161185e565b50600083815260016020526040902060050180548015156118fd57fe5b600190038181906000526020600020016000905590555b505050565b6000838152602081815260408220600601805460018101808355918452928290208551919361194e9391019190860190612d6c565b5050600083815260208181526040822060070180546001810180835591845292829020845191936119859391019190850190612d6c565b50507fce15fffe5acf0a2dabbecf2f81c67e239f03a26fb82c9a12f5335a542ea285af8282604051808060200180602001838103835285818151815260200191508051906020019080838360005b838110156119eb5781810151838201526020016119d3565b50505050905090810190601f168015611a185780820380516001836020036101000a031916815260200191505b50838103825284518152845160209182019186019080838360005b83811015611a4b578181015183820152602001611a33565b50505050905090810190601f168015611a785780820380516001836020036101000a031916815260200191505b5094505050505060405180910390a1505050565b6000828152602081815260409091208251611aaf92600390920191840190612d6c565b50600082815260208181526040808320600401805473ffffffffffffffffffffffffffffffffffffffff191633908117909155815180840182905282815285519281019290925284517f50f74ca45caac8020b8d891bd13ea5a2d79564986ee6a839f0d914896388322d94869492939283926060840192918701918190849084908381101561175c578181015183820152602001611744565b600082815260208190526040902060070180546060919083908110611b6957fe5b600091825260209182902001805460408051601f6002600019610100600187161502019094169390930492830185900485028101850190915281815292830182828015611bf75780601f10611bcc57610100808354040283529160200191611bf7565b820191906000526020600020905b815481529060010190602001808311611bda57829003601f168201915b505050505090505b92915050565b60008160011415611c285750600082815260208190526040902060050154611bff565b50600082815260016020526040902060050154611bff565b6000848152602081815260409091208451611c5d92860190612d6c565b506000848152602081815260409091208351611c8192600190920191850190612d6c565b506000848152602081815260409091208251611ca592600290920191840190612d6c565b507f165040bdbacef6df8fe21f051768c2880af7e818c00a686feb9dad36f52f62f483838360405180806020018060200180602001848103845287818151815260200191508051906020019080838360005b83811015611d0f578181015183820152602001611cf7565b50505050905090810190601f168015611d3c5780820380516001836020036101000a031916815260200191505b50848103835286518152865160209182019188019080838360005b83811015611d6f578181015183820152602001611d57565b50505050905090810190601f168015611d9c5780820380516001836020036101000a031916815260200191505b50848103825285518152855160209182019187019080838360005b83811015611dcf578181015183820152602001611db7565b50505050905090810190601f168015611dfc5780820380516001836020036101000a031916815260200191505b50965050505050505060405180910390a150505050565b60008160011415611e4d576000848152602081905260409020600501805484908110611e3b57fe5b90600052602060002001549050611e6a565b6000848152600160205260409020600501805484908110611e3b57fe5b9392505050565b60008481526002602081815260409092208451611e9693919092019190850190612d6c565b5060008481526002602090815260409091208451611ebc92600490920191860190612d6c565b50845b60008281526001602052604090206005015460001901811015611f41576000828152600160208190526040909120600501805490918301908110611eff57fe5b90600052602060002001546001600084815260200190815260200160002060050182815481101515611f2d57fe5b600091825260209091200155600101611ebf565b5060008181526001602052604090206005018054801515611f5e57fe5b60019003818190600052602060002001600090559055600080516020612e7d8339815191528383604051808060200180602001838103835285818151815260200191508051906020019080838360005b83811015611fc6578181015183820152602001611fae565b50505050905090810190601f168015611ff35780820380516001836020036101000a031916815260200191505b50838103825284518152845160209182019186019080838360005b8381101561202657818101518382015260200161200e565b50505050905090810190601f1680156120535780820380516001836020036101000a031916815260200191505b5094505050505060405180910390a15050505050565b6000602081815291815260409081902080548251601f6002600019610100600186161502019093169290920491820185900485028101850190935280835290928391908301828280156120fd5780601f106120d2576101008083540402835291602001916120fd565b820191906000526020600020905b8154815290600101906020018083116120e057829003601f168201915b505050505090806001018054600181600116156101000203166002900480601f01602080910402602001604051908101604052809291908181526020018280546001816001161561010002031660029004801561219b5780601f106121705761010080835404028352916020019161219b565b820191906000526020600020905b81548152906001019060200180831161217e57829003601f168201915b50505060028085018054604080516020601f600019610100600187161502019094169590950492830185900485028101850190915281815295969594509092509083018282801561222d5780601f106122025761010080835404028352916020019161222d565b820191906000526020600020905b81548152906001019060200180831161221057829003601f168201915b5050505060038301805460408051602060026001851615610100026000190190941693909304601f81018490048402820184019092528181529495949350908301828280156122bd5780601f10612292576101008083540402835291602001916122bd565b820191906000526020600020905b8154815290600101906020018083116122a057829003601f168201915b5050506004909301549192505073ffffffffffffffffffffffffffffffffffffffff1685565b60009081526020819052604090206006015490565b600260208181526000928352604092839020805484516001821615610100026000190190911693909304601f81018390048302840183019094528383529283918301828280156123895780601f1061235e57610100808354040283529160200191612389565b820191906000526020600020905b81548152906001019060200180831161236c57829003601f168201915b505050505090806001018054600181600116156101000203166002900480601f0160208091040260200160405190810160405280929190818152602001828054600181600116156101000203166002900480156124275780601f106123fc57610100808354040283529160200191612427565b820191906000526020600020905b81548152906001019060200180831161240a57829003601f168201915b50505060028085018054604080516020601f60001961010060018716150201909416959095049283018590048502810185019091528181529596959450909250908301828280156124b95780601f1061248e576101008083540402835291602001916124b9565b820191906000526020600020905b81548152906001019060200180831161249c57829003601f168201915b5050505060038301805460408051602060026001851615610100026000190190941693909304601f81018490048402820184019092528181529495949350908301828280156125495780601f1061251e57610100808354040283529160200191612549565b820191906000526020600020905b81548152906001019060200180831161252c57829003601f168201915b5050505060048301805460408051602060026001851615610100026000190190941693909304601f81018490048402820184019092528181529495949350908301828280156125d95780601f106125ae576101008083540402835291602001916125d9565b820191906000526020600020905b8154815290600101906020018083116125bc57829003601f168201915b5050505060058301805460408051602060026001851615610100026000190190941693909304601f81018490048402820184019092528181529495949350908301828280156126695780601f1061263e57610100808354040283529160200191612669565b820191906000526020600020905b81548152906001019060200180831161264c57829003601f168201915b5050505060068301805460408051602060026001851615610100026000190190941693909304601f81018490048402820184019092528181529495949350908301828280156126f95780601f106126ce576101008083540402835291602001916126f9565b820191906000526020600020905b8154815290600101906020018083116126dc57829003601f168201915b5050505050905087565b60016020818152600092835260409283902080548451600294821615610100026000190190911693909304601f81018390048302840183019094528383529283918301828280156127955780601f1061276a57610100808354040283529160200191612795565b820191906000526020600020905b81548152906001019060200180831161277857829003601f168201915b505050505090806001018054600181600116156101000203166002900480601f0160208091040260200160405190810160405280929190818152602001828054600181600116156101000203166002900480156128335780601f1061280857610100808354040283529160200191612833565b820191906000526020600020905b81548152906001019060200180831161281657829003601f168201915b505050506002838101546003850180546040805160206001841615610100026000190190931695909504601f8101839004830286018301909152808552959692959294509091908301828280156122bd5780601f10612292576101008083540402835291602001916122bd565b600082815260208190526040902060060180546060919083908110611b6957fe5b600083815260026020818152604090922083516128e693919092019190840190612d6c565b506000838152600260209081526040909120835161290c92600390920191850190612d6c565b50600080516020612e7d833981519152828260405180806020018060200183810383528581815181526020019150805190602001908083836000838110156119eb5781810151838201526020016119d3565b6000848152600160209081526040909120845161297d92860190612d6c565b50600084815260016020818152604090922084516129a393919092019190850190612d6c565b508060016000868152602001908152602001600020600201819055507ffa348a37b2c95bb552cf01202b5d7079946c5b0a69a2a2d5f7e55501b4ff89c6838383604051808060200180602001848152602001838103835286818151815260200191508051906020019080838360005b83811015612a2a578181015183820152602001612a12565b50505050905090810190601f168015612a575780820380516001836020036101000a031916815260200191505b50838103825285518152855160209182019187019080838360005b83811015612a8a578181015183820152602001612a72565b50505050905090810190601f168015612ab75780820380516001836020036101000a031916815260200191505b509550505050505060405180910390a150505050565b60008681526002602090815260409091208651612aec92880190612d6c565b5060008681526002602090815260409091208551612b1292600190920191870190612d6c565b5060008681526002602081815260409092208551612b3893919092019190860190612d6c565b506000828152602081815260408083206005808201805460018181018355918752858720018c9055868652808552838620820180548083018255908752858720018c90558b8652600294859052929094209082018054612bae959290920193909261010090831615026000190190911604612dea565b5060008181526001602081815260408084208a855260029283905293208354612bec9460069092019391929181161561010002600019011604612dea565b507f5e3bcdca6985aca4c2f214303c4427d409e4c631b5a08ef149bc53a500ffe0b4858585858560405180806020018060200180602001868152602001858152602001848103845289818151815260200191508051906020019080838360005b83811015612c64578181015183820152602001612c4c565b50505050905090810190601f168015612c915780820380516001836020036101000a031916815260200191505b5084810383528851815288516020918201918a019080838360005b83811015612cc4578181015183820152602001612cac565b50505050905090810190601f168015612cf15780820380516001836020036101000a031916815260200191505b50848103825287518152875160209182019189019080838360005b83811015612d24578181015183820152602001612d0c565b50505050905090810190601f168015612d515780820380516001836020036101000a031916815260200191505b509850505050505050505060405180910390a1505050505050565b828054600181600116156101000203166002900490600052602060002090601f016020900481019282601f10612dad57805160ff1916838001178555612dda565b82800160010185558215612dda579182015b82811115612dda578251825591602001919060010190612dbf565b50612de6929150612e5f565b5090565b828054600181600116156101000203166002900490600052602060002090601f016020900481019282601f10612e235780548555612dda565b82800160010185558215612dda57600052602060002091601f016020900482015b82811115612dda578254825591600101919060010190612e44565b612e7991905b80821115612de65760008155600101612e65565b9056fe9b5e0fbfcea0e11a4c7f9b7ae3cb0a96f562ccff14db3a2cf046da514c2bd385a165627a7a723058205883d37e62370e5d5adaa5e033f1a58eef9297c097d803a4aaa69e9d7c2348ee0029",
  "source": "pragma solidity ^0.5.0;\r\n\r\ncontract DrugCounterfiet\r\n{\r\n    struct Manufacturer{\r\n        string verificationId;\r\n        string name;\r\n\t\tstring location;\r\n\t\tstring password;\r\n\t\taddress manAddress;\r\n        uint[] ongoingOrders;\r\n        string[] drugNames;\r\n        string[] prices;\r\n    }\r\n\t\r\n\tstruct Seller{\r\n        string name;\r\n\t\tstring location;\r\n\t\tuint manId;\r\n\t\tstring password;\r\n\t\taddress sellAddress;\r\n        uint[] ongoingOrders;\r\n    }\r\n    \r\n     struct Order{\r\n        string drugName;\r\n        string quantity;\r\n        string orderStatus;\r\n        string orderManuDate;\r\n        string orderDelvDate;\r\n        string manName;\r\n        string sellName;\r\n    }\r\n\r\n    mapping(uint => Manufacturer) public manufacturers;\r\n\tmapping(uint => Seller) public sellers;\r\n\tmapping(uint => Order) public orders;\r\n\t\r\n    event ManufacturerCreated(\r\n        string verificationId,\r\n        string name,\r\n        string location\r\n    );\r\n\t\r\n\tevent SellerCreated(\r\n        string name,\r\n        string location,\r\n\t\tuint manId\r\n    );\r\n\r\n    event OrderCreated(\r\n        string name,\r\n        string quantity,\r\n        string status,\r\n        uint manId,\r\n        uint sellId\r\n    );\r\n    \r\n    event Registered(\r\n        string password,\r\n\t\taddress manAddress\r\n    );\r\n\r\n    event DrugCreated(\r\n        string drugName,\r\n\t\tstring price\r\n    );\r\n\r\n    event orderUpdate(\r\n        string date,\r\n\t\tstring status\r\n    );\r\n\r\n    function createManufacturer(uint _regid, string memory _verificationId, string memory _name, string memory _location) public{\r\n        manufacturers[_regid].verificationId=_verificationId;\r\n        manufacturers[_regid].name=_name;\r\n        manufacturers[_regid].location=_location;\r\n        emit ManufacturerCreated(_verificationId,_name,_location);\r\n    }\r\n\r\n    function viewOngOrdersLength(uint _regid, uint _type) public view returns (uint){\r\n        if(_type==1) {\r\n            return manufacturers[_regid].ongoingOrders.length;\r\n        }\r\n        else {\r\n            return sellers[_regid].ongoingOrders.length;\r\n        }\r\n    }\r\n\r\n    function viewOngOrders(uint _regid, uint index, uint _type) public view returns (uint){\r\n        if(_type==1) {\r\n            return manufacturers[_regid].ongoingOrders[index];\r\n        }\r\n        else {\r\n            return sellers[_regid].ongoingOrders[index];\r\n        }\r\n    }\r\n\r\n    function createOrder(uint _regid, string memory _name, string memory _quant, string memory _status, uint _manId, uint _sellId) public{\r\n        orders[_regid].drugName=_name;\r\n        orders[_regid].quantity=_quant;\r\n        orders[_regid].orderStatus=_status;\r\n        manufacturers[_manId].ongoingOrders.push(_regid);\r\n        sellers[_sellId].ongoingOrders.push(_regid);\r\n        orders[_regid].manName=manufacturers[_manId].name;\r\n        orders[_regid].sellName=sellers[_sellId].name;\r\n        emit OrderCreated(_name,_quant,_status,_manId,_sellId);\r\n\r\n    }\r\n\t\r\n\tfunction createSeller(uint _regid, string memory _name, string memory _location, uint _manId) public{\r\n        sellers[_regid].name=_name;\r\n        sellers[_regid].location=_location;\r\n        sellers[_regid].manId=_manId;\r\n        emit SellerCreated(_name,_location,_manId);\r\n\r\n    }\r\n\r\n    function registerMan(uint _regid, string memory _password) public{\r\n        manufacturers[_regid].password=_password;\r\n        manufacturers[_regid].manAddress=msg.sender;\r\n        emit Registered(_password,msg.sender);\r\n    }\r\n\r\n    function registerSeller(uint _regid, string memory _password) public{\r\n        sellers[_regid].password=_password;\r\n        sellers[_regid].sellAddress=msg.sender;\r\n        emit Registered(_password,msg.sender);\r\n    }\r\n\r\n    function addDrugs(uint _regid, string memory _drug, string memory _price) public{\r\n        manufacturers[_regid].drugNames.push(_drug);\r\n        manufacturers[_regid].prices.push(_price);\r\n        emit DrugCreated(_drug,_price);\r\n    }\r\n\r\n    function viewDrugsLength(uint _regid) public view returns (uint){\r\n        return manufacturers[_regid].drugNames.length;\r\n    }\r\n\r\n    function viewDrugs(uint _regid, uint index) public view returns (string memory){\r\n        return manufacturers[_regid].drugNames[index];\r\n    }\r\n\r\n    function viewPrice(uint _regid, uint index) public view returns (string memory){\r\n        return manufacturers[_regid].prices[index];\r\n    }\r\n\r\n    function acceptOrder(uint _regid, string memory _date, string memory _status) public{\r\n        orders[_regid].orderStatus = _status;\r\n        orders[_regid].orderManuDate = _date;\r\n        emit orderUpdate(_date,_status);\r\n    }\r\n\r\n    function rejectOrder(uint _regid, string memory _status, uint _id, uint _manId) public{\r\n        orders[_regid].orderStatus = _status;\r\n        emit orderUpdate(\"No Date\",_status);\r\n        for (uint i = _id; i< manufacturers[_manId].ongoingOrders.length-1; i++){\r\n             manufacturers[_manId].ongoingOrders[i] =  manufacturers[_manId].ongoingOrders[i+1];\r\n        }\r\n        manufacturers[_manId].ongoingOrders.pop();\r\n        emit orderUpdate(\"No Date\",_status);\r\n    }\r\n\r\n    function removeOrder(uint _regId, uint _id, uint _type) public{\r\n        if(_type==1) {  \r\n            for (uint i = _id; i< manufacturers[_regId].ongoingOrders.length-1; i++){\r\n                 manufacturers[_regId].ongoingOrders[i] =  manufacturers[_regId].ongoingOrders[i+1];\r\n            }\r\n            manufacturers[_regId].ongoingOrders.pop();\r\n        }\r\n        else {\r\n            for (uint i = _id; i< sellers[_regId].ongoingOrders.length-1; i++){\r\n                 sellers[_regId].ongoingOrders[i] =  sellers[_regId].ongoingOrders[i+1];\r\n            }\r\n            sellers[_regId].ongoingOrders.pop();\r\n        }\r\n    }\r\n\r\n    function orderDelivered(uint _id, uint _regid, string memory _date, string memory _status, uint _sellId) public{\r\n        orders[_regid].orderStatus = _status;\r\n        orders[_regid].orderDelvDate = _date;\r\n        for (uint i = _id; i< sellers[_sellId].ongoingOrders.length-1; i++){\r\n             sellers[_sellId].ongoingOrders[i] =  sellers[_sellId].ongoingOrders[i+1];\r\n        }\r\n        sellers[_sellId].ongoingOrders.pop();\r\n        emit orderUpdate(_date,_status);\r\n    }\r\n\r\n}",
  "sourcePath": "D:/PSG Semester 7/Project Work 1/Drug_Counterfiet/contracts/DrugCounterfiet.sol",
  "compiler": {
    "name": "solc",
    "version": "0.5.0+commit.1d4f565a.Emscripten.clang"
  },
  "schemaVersion": "3.0.1",
  "updatedAt": "2021-11-21T16:56:06.789Z",
  "devdoc": {
    "methods": {}
  },
  "userdoc": {
    "methods": {}
  }
}