{
  "contractName": "DrugCounterfiet",
  "abi": [
    {
      "constant": true,
      "inputs": [
        {
          "name": "",
          "type": "uint256"
        }
      ],
      "name": "manufacturers",
      "outputs": [
        {
          "name": "verificationId",
          "type": "string"
        },
        {
          "name": "name",
          "type": "string"
        },
        {
          "name": "location",
          "type": "string"
        },
        {
          "name": "password",
          "type": "string"
        },
        {
          "name": "manAddress",
          "type": "address"
        }
      ],
      "payable": false,
      "stateMutability": "view",
      "type": "function",
      "signature": "0x90175af1"
    },
    {
      "constant": true,
      "inputs": [
        {
          "name": "",
          "type": "uint256"
        }
      ],
      "name": "sellers",
      "outputs": [
        {
          "name": "name",
          "type": "string"
        },
        {
          "name": "location",
          "type": "string"
        },
        {
          "name": "manId",
          "type": "uint256"
        },
        {
          "name": "password",
          "type": "string"
        },
        {
          "name": "sellAddress",
          "type": "address"
        }
      ],
      "payable": false,
      "stateMutability": "view",
      "type": "function",
      "signature": "0xcee26ed5"
    },
    {
      "anonymous": false,
      "inputs": [
        {
          "indexed": false,
          "name": "verificationId",
          "type": "string"
        },
        {
          "indexed": false,
          "name": "name",
          "type": "string"
        },
        {
          "indexed": false,
          "name": "location",
          "type": "string"
        }
      ],
      "name": "ManufacturerCreated",
      "type": "event",
      "signature": "0x165040bdbacef6df8fe21f051768c2880af7e818c00a686feb9dad36f52f62f4"
    },
    {
      "anonymous": false,
      "inputs": [
        {
          "indexed": false,
          "name": "name",
          "type": "string"
        },
        {
          "indexed": false,
          "name": "location",
          "type": "string"
        },
        {
          "indexed": false,
          "name": "manId",
          "type": "uint256"
        }
      ],
      "name": "SellerCreated",
      "type": "event",
      "signature": "0xfa348a37b2c95bb552cf01202b5d7079946c5b0a69a2a2d5f7e55501b4ff89c6"
    },
    {
      "anonymous": false,
      "inputs": [
        {
          "indexed": false,
          "name": "password",
          "type": "string"
        },
        {
          "indexed": false,
          "name": "manAddress",
          "type": "address"
        }
      ],
      "name": "Registered",
      "type": "event",
      "signature": "0x50f74ca45caac8020b8d891bd13ea5a2d79564986ee6a839f0d914896388322d"
    },
    {
      "constant": false,
      "inputs": [
        {
          "name": "_regid",
          "type": "uint256"
        },
        {
          "name": "_verificationId",
          "type": "string"
        },
        {
          "name": "_name",
          "type": "string"
        },
        {
          "name": "_location",
          "type": "string"
        }
      ],
      "name": "createManufacturer",
      "outputs": [],
      "payable": false,
      "stateMutability": "nonpayable",
      "type": "function",
      "signature": "0x5f3a6acf"
    },
    {
      "constant": false,
      "inputs": [
        {
          "name": "_regid",
          "type": "uint256"
        },
        {
          "name": "_name",
          "type": "string"
        },
        {
          "name": "_location",
          "type": "string"
        },
        {
          "name": "_manId",
          "type": "uint256"
        }
      ],
      "name": "createSeller",
      "outputs": [],
      "payable": false,
      "stateMutability": "nonpayable",
      "type": "function",
      "signature": "0xe80fd600"
    },
    {
      "constant": false,
      "inputs": [
        {
          "name": "_regid",
          "type": "uint256"
        },
        {
          "name": "_password",
          "type": "string"
        }
      ],
      "name": "registerMan",
      "outputs": [],
      "payable": false,
      "stateMutability": "nonpayable",
      "type": "function",
      "signature": "0x276dde9d"
    },
    {
      "constant": false,
      "inputs": [
        {
          "name": "_regid",
          "type": "uint256"
        },
        {
          "name": "_password",
          "type": "string"
        }
      ],
      "name": "registerSeller",
      "outputs": [],
      "payable": false,
      "stateMutability": "nonpayable",
      "type": "function",
      "signature": "0x13a48fd0"
    }
  ],
  "bytecode": "0x608060405234801561001057600080fd5b5061131d806100206000396000f3fe6080604052600436106100775763ffffffff7c010000000000000000000000000000000000000000000000000000000060003504166313a48fd0811461007c578063276dde9d146101385780635f3a6acf146101f257806390175af1146103ba578063cee26ed5146105a7578063e80fd60014610735575b600080fd5b34801561008857600080fd5b506101366004803603604081101561009f57600080fd5b813591908101906040810160208201356401000000008111156100c157600080fd5b8201836020820111156100d357600080fd5b803590602001918460018302840111640100000000831117156100f557600080fd5b91908080601f016020809104026020016040519081016040528093929190818152602001838380828437600092019190915250929550610878945050505050565b005b34801561014457600080fd5b506101366004803603604081101561015b57600080fd5b8135919081019060408101602082013564010000000081111561017d57600080fd5b82018360208201111561018f57600080fd5b803590602001918460018302840111640100000000831117156101b157600080fd5b91908080601f016020809104026020016040519081016040528093929190818152602001838380828437600092019190915250929550610978945050505050565b3480156101fe57600080fd5b506101366004803603608081101561021557600080fd5b8135919081019060408101602082013564010000000081111561023757600080fd5b82018360208201111561024957600080fd5b8035906020019184600183028401116401000000008311171561026b57600080fd5b91908080601f01602080910402602001604051908101604052809392919081815260200183838082843760009201919091525092959493602081019350359150506401000000008111156102be57600080fd5b8201836020820111156102d057600080fd5b803590602001918460018302840111640100000000831117156102f257600080fd5b91908080601f016020809104026020016040519081016040528093929190818152602001838380828437600092019190915250929594936020810193503591505064010000000081111561034557600080fd5b82018360208201111561035757600080fd5b8035906020019184600183028401116401000000008311171561037957600080fd5b91908080601f016020809104026020016040519081016040528093929190818152602001838380828437600092019190915250929550610a34945050505050565b3480156103c657600080fd5b506103e4600480360360208110156103dd57600080fd5b5035610c78565b604051808060200180602001806020018060200186600160a060020a0316600160a060020a0316815260200185810385528a818151815260200191508051906020019080838360005b8381101561044557818101518382015260200161042d565b50505050905090810190601f1680156104725780820380516001836020036101000a031916815260200191505b5085810384528951815289516020918201918b019080838360005b838110156104a557818101518382015260200161048d565b50505050905090810190601f1680156104d25780820380516001836020036101000a031916815260200191505b5085810383528851815288516020918201918a019080838360005b838110156105055781810151838201526020016104ed565b50505050905090810190601f1680156105325780820380516001836020036101000a031916815260200191505b50858103825287518152875160209182019189019080838360005b8381101561056557818101518382015260200161054d565b50505050905090810190601f1680156105925780820380516001836020036101000a031916815260200191505b50995050505050505050505060405180910390f35b3480156105b357600080fd5b506105d1600480360360208110156105ca57600080fd5b5035610ee5565b6040518080602001806020018681526020018060200185600160a060020a0316600160a060020a03168152602001848103845289818151815260200191508051906020019080838360005b8381101561063457818101518382015260200161061c565b50505050905090810190601f1680156106615780820380516001836020036101000a031916815260200191505b5084810383528851815288516020918201918a019080838360005b8381101561069457818101518382015260200161067c565b50505050905090810190601f1680156106c15780820380516001836020036101000a031916815260200191505b50848103825286518152865160209182019188019080838360005b838110156106f45781810151838201526020016106dc565b50505050905090810190601f1680156107215780820380516001836020036101000a031916815260200191505b509850505050505050505060405180910390f35b34801561074157600080fd5b506101366004803603608081101561075857600080fd5b8135919081019060408101602082013564010000000081111561077a57600080fd5b82018360208201111561078c57600080fd5b803590602001918460018302840111640100000000831117156107ae57600080fd5b91908080601f016020809104026020016040519081016040528093929190818152602001838380828437600092019190915250929594936020810193503591505064010000000081111561080157600080fd5b82018360208201111561081357600080fd5b8035906020019184600183028401116401000000008311171561083557600080fd5b91908080601f0160208091040260200160405190810160405280939291908181526020018383808284376000920191909152509295505091359250611082915050565b6000828152600160209081526040909120825161089d92600390920191840190611256565b506000828152600160209081526040808320600401805473ffffffffffffffffffffffffffffffffffffffff191633908117909155815180840182905282815285519281019290925284517f50f74ca45caac8020b8d891bd13ea5a2d79564986ee6a839f0d914896388322d94869492939283926060840192918701918190849084905b83811015610939578181015183820152602001610921565b50505050905090810190601f1680156109665780820380516001836020036101000a031916815260200191505b50935050505060405180910390a15050565b600082815260208181526040909120825161099b92600390920191840190611256565b50600082815260208181526040808320600401805473ffffffffffffffffffffffffffffffffffffffff191633908117909155815180840182905282815285519281019290925284517f50f74ca45caac8020b8d891bd13ea5a2d79564986ee6a839f0d914896388322d948694929392839260608401929187019181908490849083811015610939578181015183820152602001610921565b6040805160a0810182528481526020808201859052818301849052825180820184526000808252606084019190915260808301819052878152808252929092208151805192939192610a899284920190611256565b506020828101518051610aa29260018501920190611256565b5060408201518051610abe916002840191602090910190611256565b5060608201518051610ada916003840191602090910190611256565b5060808201518160040160006101000a815481600160a060020a030219169083600160a060020a031602179055509050507f165040bdbacef6df8fe21f051768c2880af7e818c00a686feb9dad36f52f62f483838360405180806020018060200180602001848103845287818151815260200191508051906020019080838360005b83811015610b74578181015183820152602001610b5c565b50505050905090810190601f168015610ba15780820380516001836020036101000a031916815260200191505b50848103835286518152865160209182019188019080838360005b83811015610bd4578181015183820152602001610bbc565b50505050905090810190601f168015610c015780820380516001836020036101000a031916815260200191505b50848103825285518152855160209182019187019080838360005b83811015610c34578181015183820152602001610c1c565b50505050905090810190601f168015610c615780820380516001836020036101000a031916815260200191505b50965050505050505060405180910390a150505050565b6000602081815291815260409081902080548251601f600260001961010060018616150201909316929092049182018590048502810185019093528083529092839190830182828015610d0c5780601f10610ce157610100808354040283529160200191610d0c565b820191906000526020600020905b815481529060010190602001808311610cef57829003601f168201915b505050505090806001018054600181600116156101000203166002900480601f016020809104026020016040519081016040528092919081815260200182805460018160011615610100020316600290048015610daa5780601f10610d7f57610100808354040283529160200191610daa565b820191906000526020600020905b815481529060010190602001808311610d8d57829003601f168201915b50505060028085018054604080516020601f6000196101006001871615020190941695909504928301859004850281018501909152818152959695945090925090830182828015610e3c5780601f10610e1157610100808354040283529160200191610e3c565b820191906000526020600020905b815481529060010190602001808311610e1f57829003601f168201915b5050505060038301805460408051602060026001851615610100026000190190941693909304601f8101849004840282018401909252818152949594935090830182828015610ecc5780601f10610ea157610100808354040283529160200191610ecc565b820191906000526020600020905b815481529060010190602001808311610eaf57829003601f168201915b50505060049093015491925050600160a060020a031685565b60016020818152600092835260409283902080548451600294821615610100026000190190911693909304601f8101839004830284018301909452838352928391830182828015610f775780601f10610f4c57610100808354040283529160200191610f77565b820191906000526020600020905b815481529060010190602001808311610f5a57829003601f168201915b505050505090806001018054600181600116156101000203166002900480601f0160208091040260200160405190810160405280929190818152602001828054600181600116156101000203166002900480156110155780601f10610fea57610100808354040283529160200191611015565b820191906000526020600020905b815481529060010190602001808311610ff857829003601f168201915b505050506002838101546003850180546040805160206001841615610100026000190190931695909504601f810183900483028601830190915280855295969295929450909190830182828015610ecc5780601f10610ea157610100808354040283529160200191610ecc565b6040805160a0810182528481526020808201859052818301849052825180820184526000808252606084019190915260808301819052878152600182529290922081518051929391926110d89284920190611256565b5060208281015180516110f19260018501920190611256565b506040820151600282015560608201518051611117916003840191602090910190611256565b5060808201518160040160006101000a815481600160a060020a030219169083600160a060020a031602179055509050507ffa348a37b2c95bb552cf01202b5d7079946c5b0a69a2a2d5f7e55501b4ff89c6838383604051808060200180602001848152602001838103835286818151815260200191508051906020019080838360005b838110156111b357818101518382015260200161119b565b50505050905090810190601f1680156111e05780820380516001836020036101000a031916815260200191505b50838103825285518152855160209182019187019080838360005b838110156112135781810151838201526020016111fb565b50505050905090810190601f1680156112405780820380516001836020036101000a031916815260200191505b509550505050505060405180910390a150505050565b828054600181600116156101000203166002900490600052602060002090601f016020900481019282601f1061129757805160ff19168380011785556112c4565b828001600101855582156112c4579182015b828111156112c45782518255916020019190600101906112a9565b506112d09291506112d4565b5090565b6112ee91905b808211156112d057600081556001016112da565b9056fea165627a7a72305820915daeacafe3cf8f055dbd4ee7f3b3218f86b2625c391279e28c694ad52a450a0029",
  "source": "pragma solidity ^0.5.0;\r\n\r\ncontract DrugCounterfiet\r\n{\r\n\r\n    struct Manufacturer{\r\n        string verificationId;\r\n        string name;\r\n\t\tstring location;\r\n\t\tstring password;\r\n\t\taddress manAddress;\r\n    }\r\n\t\r\n\tstruct Seller{\r\n        string name;\r\n\t\tstring location;\r\n\t\tuint manId;\r\n\t\tstring password;\r\n\t\taddress sellAddress;\r\n    }\r\n\r\n    mapping(uint => Manufacturer) public manufacturers;\r\n\tmapping(uint => Seller) public sellers;\r\n\t\r\n    event ManufacturerCreated(\r\n        string verificationId,\r\n        string name,\r\n        string location\r\n    );\r\n\t\r\n\tevent SellerCreated(\r\n        string name,\r\n        string location,\r\n\t\tuint manId\r\n    );\r\n    \r\n    event Registered(\r\n        string password,\r\n\t\taddress manAddress\r\n    );\r\n\r\n    function createManufacturer(uint _regid, string memory _verificationId, string memory _name, string memory _location) public{\r\n            manufacturers[_regid]=Manufacturer(_verificationId,_name,_location,\"\",0x0000000000000000000000000000000000000000);\r\n            emit ManufacturerCreated(_verificationId,_name,_location);\r\n\r\n    }\r\n\t\r\n\tfunction createSeller(uint _regid, string memory _name, string memory _location, uint _manId) public{\r\n            sellers[_regid]=Seller(_name,_location,_manId,\"\",0x0000000000000000000000000000000000000000);\r\n            emit SellerCreated(_name,_location,_manId);\r\n\r\n    }\r\n\r\n    function registerMan(uint _regid, string memory _password) public{\r\n        manufacturers[_regid].password=_password;\r\n        manufacturers[_regid].manAddress=msg.sender;\r\n        emit Registered(_password,msg.sender);\r\n    }\r\n\r\n    function registerSeller(uint _regid, string memory _password) public{\r\n        sellers[_regid].password=_password;\r\n        sellers[_regid].sellAddress=msg.sender;\r\n        emit Registered(_password,msg.sender);\r\n    }\r\n\r\n}",
  "sourcePath": "D:/PSG Semester 7/Project Work 1/Drug_Counterfiet/contracts/DrugCounterfiet.sol",
  "compiler": {
    "name": "solc",
    "version": "0.5.0+commit.1d4f565a.Emscripten.clang"
  },
  "schemaVersion": "3.0.1",
  "updatedAt": "2021-10-15T04:24:46.641Z",
  "devdoc": {
    "methods": {}
  },
  "userdoc": {
    "methods": {}
  }
}